{
  "address": "0x1979520137Cde978795EB84C9aa994C7B57e9bef",
  "abi": [
    {
      "inputs": [
        {
          "internalType": "string",
          "name": "baseTokenURI_",
          "type": "string"
        },
        {
          "internalType": "uint256",
          "name": "mintPrice_",
          "type": "uint256"
        },
        {
          "internalType": "uint256",
          "name": "maxSupply_",
          "type": "uint256"
        },
        {
          "internalType": "uint256",
          "name": "revealTime_",
          "type": "uint256"
        },
        {
          "internalType": "uint256",
          "name": "reserved_",
          "type": "uint256"
        },
        {
          "internalType": "address[]",
          "name": "wallets_",
          "type": "address[]"
        },
        {
          "internalType": "address",
          "name": "owner_",
          "type": "address"
        }
      ],
      "stateMutability": "nonpayable",
      "type": "constructor"
    },
    {
      "anonymous": false,
      "inputs": [
        {
          "indexed": true,
          "internalType": "address",
          "name": "owner",
          "type": "address"
        },
        {
          "indexed": true,
          "internalType": "address",
          "name": "approved",
          "type": "address"
        },
        {
          "indexed": true,
          "internalType": "uint256",
          "name": "tokenId",
          "type": "uint256"
        }
      ],
      "name": "Approval",
      "type": "event"
    },
    {
      "anonymous": false,
      "inputs": [
        {
          "indexed": true,
          "internalType": "address",
          "name": "owner",
          "type": "address"
        },
        {
          "indexed": true,
          "internalType": "address",
          "name": "operator",
          "type": "address"
        },
        {
          "indexed": false,
          "internalType": "bool",
          "name": "approved",
          "type": "bool"
        }
      ],
      "name": "ApprovalForAll",
      "type": "event"
    },
    {
      "anonymous": false,
      "inputs": [
        {
          "indexed": true,
          "internalType": "address",
          "name": "previousOwner",
          "type": "address"
        },
        {
          "indexed": true,
          "internalType": "address",
          "name": "newOwner",
          "type": "address"
        }
      ],
      "name": "OwnershipTransferred",
      "type": "event"
    },
    {
      "anonymous": false,
      "inputs": [
        {
          "indexed": false,
          "internalType": "address",
          "name": "account",
          "type": "address"
        }
      ],
      "name": "Paused",
      "type": "event"
    },
    {
      "anonymous": false,
      "inputs": [
        {
          "indexed": true,
          "internalType": "address",
          "name": "from",
          "type": "address"
        },
        {
          "indexed": true,
          "internalType": "address",
          "name": "to",
          "type": "address"
        },
        {
          "indexed": true,
          "internalType": "uint256",
          "name": "tokenId",
          "type": "uint256"
        }
      ],
      "name": "Transfer",
      "type": "event"
    },
    {
      "anonymous": false,
      "inputs": [
        {
          "indexed": false,
          "internalType": "address",
          "name": "account",
          "type": "address"
        }
      ],
      "name": "Unpaused",
      "type": "event"
    },
    {
      "anonymous": false,
      "inputs": [
        {
          "indexed": false,
          "internalType": "address",
          "name": "payee",
          "type": "address"
        },
        {
          "indexed": false,
          "internalType": "uint256",
          "name": "amount",
          "type": "uint256"
        }
      ],
      "name": "Withdrawn",
      "type": "event"
    },
    {
      "inputs": [
        {
          "internalType": "address",
          "name": "to",
          "type": "address"
        },
        {
          "internalType": "uint256",
          "name": "tokenId",
          "type": "uint256"
        }
      ],
      "name": "approve",
      "outputs": [],
      "stateMutability": "nonpayable",
      "type": "function"
    },
    {
      "inputs": [],
      "name": "availableTokenCount",
      "outputs": [
        {
          "internalType": "uint256",
          "name": "",
          "type": "uint256"
        }
      ],
      "stateMutability": "view",
      "type": "function"
    },
    {
      "inputs": [],
      "name": "availableTokenForSale",
      "outputs": [
        {
          "internalType": "uint256",
          "name": "",
          "type": "uint256"
        }
      ],
      "stateMutability": "view",
      "type": "function"
    },
    {
      "inputs": [
        {
          "internalType": "address",
          "name": "owner",
          "type": "address"
        }
      ],
      "name": "balanceOf",
      "outputs": [
        {
          "internalType": "uint256",
          "name": "",
          "type": "uint256"
        }
      ],
      "stateMutability": "view",
      "type": "function"
    },
    {
      "inputs": [
        {
          "internalType": "uint256",
          "name": "tokenId",
          "type": "uint256"
        }
      ],
      "name": "getApproved",
      "outputs": [
        {
          "internalType": "address",
          "name": "",
          "type": "address"
        }
      ],
      "stateMutability": "view",
      "type": "function"
    },
    {
      "inputs": [],
      "name": "getWallets",
      "outputs": [
        {
          "internalType": "address[]",
          "name": "",
          "type": "address[]"
        }
      ],
      "stateMutability": "view",
      "type": "function"
    },
    {
      "inputs": [
        {
          "internalType": "address",
          "name": "owner",
          "type": "address"
        },
        {
          "internalType": "address",
          "name": "operator",
          "type": "address"
        }
      ],
      "name": "isApprovedForAll",
      "outputs": [
        {
          "internalType": "bool",
          "name": "",
          "type": "bool"
        }
      ],
      "stateMutability": "view",
      "type": "function"
    },
    {
      "inputs": [],
      "name": "maxSupply",
      "outputs": [
        {
          "internalType": "uint256",
          "name": "",
          "type": "uint256"
        }
      ],
      "stateMutability": "view",
      "type": "function"
    },
    {
      "inputs": [
        {
          "internalType": "uint256",
          "name": "_numberOfNFTs",
          "type": "uint256"
        }
      ],
      "name": "mint",
      "outputs": [],
      "stateMutability": "payable",
      "type": "function"
    },
    {
      "inputs": [],
      "name": "mintPrice",
      "outputs": [
        {
          "internalType": "uint256",
          "name": "",
          "type": "uint256"
        }
      ],
      "stateMutability": "view",
      "type": "function"
    },
    {
      "inputs": [
        {
          "internalType": "address",
          "name": "_to",
          "type": "address"
        },
        {
          "internalType": "uint256",
          "name": "_numberOfNFTs",
          "type": "uint256"
        }
      ],
      "name": "mintReservedNFTs",
      "outputs": [],
      "stateMutability": "nonpayable",
      "type": "function"
    },
    {
      "inputs": [],
      "name": "name",
      "outputs": [
        {
          "internalType": "string",
          "name": "",
          "type": "string"
        }
      ],
      "stateMutability": "view",
      "type": "function"
    },
    {
      "inputs": [],
      "name": "owner",
      "outputs": [
        {
          "internalType": "address",
          "name": "",
          "type": "address"
        }
      ],
      "stateMutability": "view",
      "type": "function"
    },
    {
      "inputs": [
        {
          "internalType": "address",
          "name": "owner_",
          "type": "address"
        }
      ],
      "name": "ownerNFTs",
      "outputs": [
        {
          "internalType": "uint256[]",
          "name": "",
          "type": "uint256[]"
        }
      ],
      "stateMutability": "view",
      "type": "function"
    },
    {
      "inputs": [
        {
          "internalType": "uint256",
          "name": "tokenId",
          "type": "uint256"
        }
      ],
      "name": "ownerOf",
      "outputs": [
        {
          "internalType": "address",
          "name": "",
          "type": "address"
        }
      ],
      "stateMutability": "view",
      "type": "function"
    },
    {
      "inputs": [],
      "name": "pause",
      "outputs": [],
      "stateMutability": "nonpayable",
      "type": "function"
    },
    {
      "inputs": [],
      "name": "paused",
      "outputs": [
        {
          "internalType": "bool",
          "name": "",
          "type": "bool"
        }
      ],
      "stateMutability": "view",
      "type": "function"
    },
    {
      "inputs": [],
      "name": "renounceOwnership",
      "outputs": [],
      "stateMutability": "nonpayable",
      "type": "function"
    },
    {
      "inputs": [],
      "name": "reserved",
      "outputs": [
        {
          "internalType": "uint256",
          "name": "",
          "type": "uint256"
        }
      ],
      "stateMutability": "view",
      "type": "function"
    },
    {
      "inputs": [],
      "name": "revealTime",
      "outputs": [
        {
          "internalType": "uint256",
          "name": "",
          "type": "uint256"
        }
      ],
      "stateMutability": "view",
      "type": "function"
    },
    {
      "inputs": [
        {
          "internalType": "address",
          "name": "from",
          "type": "address"
        },
        {
          "internalType": "address",
          "name": "to",
          "type": "address"
        },
        {
          "internalType": "uint256",
          "name": "tokenId",
          "type": "uint256"
        }
      ],
      "name": "safeTransferFrom",
      "outputs": [],
      "stateMutability": "nonpayable",
      "type": "function"
    },
    {
      "inputs": [
        {
          "internalType": "address",
          "name": "from",
          "type": "address"
        },
        {
          "internalType": "address",
          "name": "to",
          "type": "address"
        },
        {
          "internalType": "uint256",
          "name": "tokenId",
          "type": "uint256"
        },
        {
          "internalType": "bytes",
          "name": "_data",
          "type": "bytes"
        }
      ],
      "name": "safeTransferFrom",
      "outputs": [],
      "stateMutability": "nonpayable",
      "type": "function"
    },
    {
      "inputs": [
        {
          "internalType": "address",
          "name": "operator",
          "type": "address"
        },
        {
          "internalType": "bool",
          "name": "approved",
          "type": "bool"
        }
      ],
      "name": "setApprovalForAll",
      "outputs": [],
      "stateMutability": "nonpayable",
      "type": "function"
    },
    {
      "inputs": [
        {
          "internalType": "string",
          "name": "_URI",
          "type": "string"
        }
      ],
      "name": "setBaseURI",
      "outputs": [],
      "stateMutability": "nonpayable",
      "type": "function"
    },
    {
      "inputs": [],
      "name": "startTimeSale",
      "outputs": [
        {
          "internalType": "uint256",
          "name": "",
          "type": "uint256"
        }
      ],
      "stateMutability": "view",
      "type": "function"
    },
    {
      "inputs": [
        {
          "internalType": "bytes4",
          "name": "interfaceId",
          "type": "bytes4"
        }
      ],
      "name": "supportsInterface",
      "outputs": [
        {
          "internalType": "bool",
          "name": "",
          "type": "bool"
        }
      ],
      "stateMutability": "view",
      "type": "function"
    },
    {
      "inputs": [],
      "name": "symbol",
      "outputs": [
        {
          "internalType": "string",
          "name": "",
          "type": "string"
        }
      ],
      "stateMutability": "view",
      "type": "function"
    },
    {
      "inputs": [
        {
          "internalType": "uint256",
          "name": "index",
          "type": "uint256"
        }
      ],
      "name": "tokenByIndex",
      "outputs": [
        {
          "internalType": "uint256",
          "name": "",
          "type": "uint256"
        }
      ],
      "stateMutability": "view",
      "type": "function"
    },
    {
      "inputs": [],
      "name": "tokenCount",
      "outputs": [
        {
          "internalType": "uint256",
          "name": "",
          "type": "uint256"
        }
      ],
      "stateMutability": "view",
      "type": "function"
    },
    {
      "inputs": [
        {
          "internalType": "address",
          "name": "owner",
          "type": "address"
        },
        {
          "internalType": "uint256",
          "name": "index",
          "type": "uint256"
        }
      ],
      "name": "tokenOfOwnerByIndex",
      "outputs": [
        {
          "internalType": "uint256",
          "name": "",
          "type": "uint256"
        }
      ],
      "stateMutability": "view",
      "type": "function"
    },
    {
      "inputs": [
        {
          "internalType": "uint256",
          "name": "tokenId",
          "type": "uint256"
        }
      ],
      "name": "tokenURI",
      "outputs": [
        {
          "internalType": "string",
          "name": "",
          "type": "string"
        }
      ],
      "stateMutability": "view",
      "type": "function"
    },
    {
      "inputs": [],
      "name": "totalReserveSupply",
      "outputs": [
        {
          "internalType": "uint256",
          "name": "",
          "type": "uint256"
        }
      ],
      "stateMutability": "view",
      "type": "function"
    },
    {
      "inputs": [],
      "name": "totalSupply",
      "outputs": [
        {
          "internalType": "uint256",
          "name": "",
          "type": "uint256"
        }
      ],
      "stateMutability": "view",
      "type": "function"
    },
    {
      "inputs": [
        {
          "internalType": "address",
          "name": "from",
          "type": "address"
        },
        {
          "internalType": "address",
          "name": "to",
          "type": "address"
        },
        {
          "internalType": "uint256",
          "name": "tokenId",
          "type": "uint256"
        }
      ],
      "name": "transferFrom",
      "outputs": [],
      "stateMutability": "nonpayable",
      "type": "function"
    },
    {
      "inputs": [
        {
          "internalType": "address",
          "name": "newOwner",
          "type": "address"
        }
      ],
      "name": "transferOwnership",
      "outputs": [],
      "stateMutability": "nonpayable",
      "type": "function"
    },
    {
      "inputs": [],
      "name": "unpause",
      "outputs": [],
      "stateMutability": "nonpayable",
      "type": "function"
    },
    {
      "inputs": [
        {
          "internalType": "uint256",
          "name": "_startTime",
          "type": "uint256"
        }
      ],
      "name": "updateSaleStartTime",
      "outputs": [],
      "stateMutability": "nonpayable",
      "type": "function"
    },
    {
      "inputs": [],
      "name": "withdraw",
      "outputs": [],
      "stateMutability": "nonpayable",
      "type": "function"
    }
  ],
  "transactionHash": "0xe66ad4450dd57ef924632f03ada5d63c78c6a224dbc21e85f0afd15aea0edb29",
  "args": [
    "ipfs://QmVAjAt3otNNJEkEbkR2suki13BhnWZc4ohxG8BA3CLLQd/",
    "60000000000000000",
    8888,
    86400,
    388,
    [
      "0x2819C6d61e4c83bc53dD17D4aa00deDBe35894AA",
      "0x4DECad41547aA81740Be6016ad402BA201Ec973b"
    ],
    "0xa1D2aC2b075194770D60d5ac4c7a30015010E1A0"
  ],
  "solcInputHash": "c1d52fbe01605d3b05890391cbe3f7ae",
  "bytecode": "0x6101206040523480156200001257600080fd5b506040516200346138038062003461833981016040819052620000359162000408565b81818660008682818160405180604001604052806009815260200168115a59da1d10985b1b60ba1b815250604051806040016040528060028152602001611c2160f11b81525081600090805190602001906200009392919062000256565b508051620000a990600190602084019062000256565b50505060805260a052505060c05250600d805460ff19169055620000cd3362000121565b620000d8816200017b565b506001600e558051620000f390600f906020840190620002e5565b505086516200010a9060119060208a019062000256565b50505060e0939093526101005250620005ae915050565b600d80546001600160a01b03838116610100818102610100600160a81b031985161790945560405193909204169182907f8be0079c531659141344cd1fd0a4f28419497f9722a3daafe3b4186f6b6457e090600090a35050565b600d546001600160a01b03610100909104163314620001e15760405162461bcd60e51b815260206004820181905260248201527f4f776e61626c653a2063616c6c6572206973206e6f7420746865206f776e657260448201526064015b60405180910390fd5b6001600160a01b038116620002485760405162461bcd60e51b815260206004820152602660248201527f4f776e61626c653a206e6577206f776e657220697320746865207a65726f206160448201526564647265737360d01b6064820152608401620001d8565b620002538162000121565b50565b82805462000264906200055b565b90600052602060002090601f016020900481019282620002885760008555620002d3565b82601f10620002a357805160ff1916838001178555620002d3565b82800160010185558215620002d3579182015b82811115620002d3578251825591602001919060010190620002b6565b50620002e19291506200033d565b5090565b828054828255906000526020600020908101928215620002d3579160200282015b82811115620002d357825182546001600160a01b0319166001600160a01b0390911617825560209092019160019091019062000306565b5b80821115620002e157600081556001016200033e565b80516001600160a01b03811681146200036c57600080fd5b919050565b600082601f8301126200038357600080fd5b815160206001600160401b03821115620003a157620003a162000598565b8160051b620003b282820162000528565b838152828101908684018388018501891015620003ce57600080fd5b600093505b85841015620003fc57620003e78162000354565b835260019390930192918401918401620003d3565b50979650505050505050565b600080600080600080600060e0888a0312156200042457600080fd5b87516001600160401b03808211156200043c57600080fd5b818a0191508a601f8301126200045157600080fd5b81518181111562000466576200046662000598565b60206200047c601f8301601f1916820162000528565b8281528d828487010111156200049157600080fd5b60005b83811015620004b157858101830151828201840152820162000494565b83811115620004c35760008385840101525b50809b5050808c01519950505060408a0151965060608a0151955060808a0151945060a08a0151915080821115620004fa57600080fd5b50620005098a828b0162000371565b9250506200051a60c0890162000354565b905092959891949750929550565b604051601f8201601f191681016001600160401b038111828210171562000553576200055362000598565b604052919050565b600181811c908216806200057057607f821691505b602082108114156200059257634e487b7160e01b600052602260045260246000fd5b50919050565b634e487b7160e01b600052604160045260246000fd5b60805160a05160c05160e05161010051612e366200062b600039600081816105ac0152611af30152600081816104630152611099015260006120450152600081816106fd01528181610a3d0152610d120152600081816105fd01528181610a5e0152818161137d01528181611ac60152611f080152612e366000f3fe6080604052600436106102255760003560e01c8063715018a611610123578063b88d4fde116100ab578063e14ca3531161006f578063e14ca35314610643578063e985e9c514610658578063ecac650b146106a1578063f2fde38b146106ce578063fe60d12c146106ee57600080fd5b8063b88d4fde1461057a578063ba829d711461059a578063c87b56dd146105ce578063d5abeb01146105ee578063db7a46051461062157600080fd5b806391f4f96c116100f257806391f4f96c1461050857806395d89b411461051d5780639f181b5e14610532578063a0712d6814610547578063a22cb4651461055a57600080fd5b8063715018a6146104a55780638456cb59146104ba5780638da5cb5b146104cf5780638da7878c146104f257600080fd5b80633ccfd60b116101b157806356c5d1bd1161017557806356c5d1bd146103f95780635c975abb146104195780636352211e146104315780636817c76c1461045157806370a082311461048557600080fd5b80633ccfd60b1461036f5780633f4ba83a1461038457806342842e0e146103995780634f6ccce7146103b957806355f804b3146103d957600080fd5b806318160ddd116101f857806318160ddd146102db57806323b872dd146102fa578063295e4edf1461031a5780632c4128271461033a5780632f745c591461034f57600080fd5b806301ffc9a71461022a57806306fdde031461025f578063081812fc14610281578063095ea7b3146102b9575b600080fd5b34801561023657600080fd5b5061024a6102453660046129e6565b610721565b60405190151581526020015b60405180910390f35b34801561026b57600080fd5b50610274610732565b6040516102569190612b9f565b34801561028d57600080fd5b506102a161029c366004612a69565b6107c4565b6040516001600160a01b039091168152602001610256565b3480156102c557600080fd5b506102d96102d43660046129bc565b61085e565b005b3480156102e757600080fd5b506008545b604051908152602001610256565b34801561030657600080fd5b506102d96103153660046128c8565b610974565b34801561032657600080fd5b506102d9610335366004612a69565b6109a5565b34801561034657600080fd5b506102ec610a21565b34801561035b57600080fd5b506102ec61036a3660046129bc565b610a91565b34801561037b57600080fd5b506102d9610b27565b34801561039057600080fd5b506102d9610b61565b3480156103a557600080fd5b506102d96103b43660046128c8565b610b99565b3480156103c557600080fd5b506102ec6103d4366004612a69565b610bb4565b3480156103e557600080fd5b506102d96103f4366004612a20565b610c47565b34801561040557600080fd5b506102d96104143660046129bc565b610cdf565b34801561042557600080fd5b50600d5460ff1661024a565b34801561043d57600080fd5b506102a161044c366004612a69565b610e29565b34801561045d57600080fd5b506102ec7f000000000000000000000000000000000000000000000000000000000000000081565b34801561049157600080fd5b506102ec6104a036600461287a565b610ea0565b3480156104b157600080fd5b506102d9610f27565b3480156104c657600080fd5b506102d9610f61565b3480156104db57600080fd5b50600d5461010090046001600160a01b03166102a1565b3480156104fe57600080fd5b506102ec60105481565b34801561051457600080fd5b50600b546102ec565b34801561052957600080fd5b50610274610f99565b34801561053e57600080fd5b506102ec610fa8565b6102d9610555366004612a69565b610fb3565b34801561056657600080fd5b506102d9610575366004612980565b611110565b34801561058657600080fd5b506102d9610595366004612904565b6111d5565b3480156105a657600080fd5b506102ec7f000000000000000000000000000000000000000000000000000000000000000081565b3480156105da57600080fd5b506102746105e9366004612a69565b61120d565b3480156105fa57600080fd5b507f00000000000000000000000000000000000000000000000000000000000000006102ec565b34801561062d57600080fd5b50610636611310565b6040516102569190612b1a565b34801561064f57600080fd5b506102ec611371565b34801561066457600080fd5b5061024a610673366004612895565b6001600160a01b03918216600090815260056020908152604080832093909416825291909152205460ff1690565b3480156106ad57600080fd5b506106c16106bc36600461287a565b6113a1565b6040516102569190612b67565b3480156106da57600080fd5b506102d96106e936600461287a565b611460565b3480156106fa57600080fd5b507f00000000000000000000000000000000000000000000000000000000000000006102ec565b600061072c826114fe565b92915050565b60606000805461074190612d18565b80601f016020809104026020016040519081016040528092919081815260200182805461076d90612d18565b80156107ba5780601f1061078f576101008083540402835291602001916107ba565b820191906000526020600020905b81548152906001019060200180831161079d57829003601f168201915b5050505050905090565b6000818152600260205260408120546001600160a01b03166108425760405162461bcd60e51b815260206004820152602c60248201527f4552433732313a20617070726f76656420717565727920666f72206e6f6e657860448201526b34b9ba32b73a103a37b5b2b760a11b60648201526084015b60405180910390fd5b506000908152600460205260409020546001600160a01b031690565b600061086982610e29565b9050806001600160a01b0316836001600160a01b031614156108d75760405162461bcd60e51b815260206004820152602160248201527f4552433732313a20617070726f76616c20746f2063757272656e74206f776e656044820152603960f91b6064820152608401610839565b336001600160a01b03821614806108f357506108f38133610673565b6109655760405162461bcd60e51b815260206004820152603860248201527f4552433732313a20617070726f76652063616c6c6572206973206e6f74206f7760448201527f6e6572206e6f7220617070726f76656420666f7220616c6c00000000000000006064820152608401610839565b61096f8383611523565b505050565b61097e3382611591565b61099a5760405162461bcd60e51b815260040161083990612c39565b61096f838383611688565b600d546001600160a01b036101009091041633146109d55760405162461bcd60e51b815260040161083990612c04565b428111610a1c5760405162461bcd60e51b815260206004820152601560248201527443616e206e6f74207365742074696d65206261636b60581b6044820152606401610839565b601055565b6000600b54610a2e610fa8565b610a389190612cd5565b610a827f00000000000000000000000000000000000000000000000000000000000000007f0000000000000000000000000000000000000000000000000000000000000000612cd5565b610a8c9190612cd5565b905090565b6000610a9c83610ea0565b8210610afe5760405162461bcd60e51b815260206004820152602b60248201527f455243373231456e756d657261626c653a206f776e657220696e646578206f7560448201526a74206f6620626f756e647360a81b6064820152608401610839565b506001600160a01b03919091166000908152600660209081526040808320938352929052205490565b600d546001600160a01b03610100909104163314610b575760405162461bcd60e51b815260040161083990612c04565b610b5f611833565b565b600d546001600160a01b03610100909104163314610b915760405162461bcd60e51b815260040161083990612c04565b610b5f6119a8565b61096f838383604051806020016040528060008152506111d5565b6000610bbf60085490565b8210610c225760405162461bcd60e51b815260206004820152602c60248201527f455243373231456e756d657261626c653a20676c6f62616c20696e646578206f60448201526b7574206f6620626f756e647360a01b6064820152608401610839565b60088281548110610c3557610c35612dbe565b90600052602060002001549050919050565b600d546001600160a01b03610100909104163314610c775760405162461bcd60e51b815260040161083990612c04565b6000815111610cc85760405162461bcd60e51b815260206004820152601d60248201527f456d707479206261736520555249206973206e6f7420616c6c6f7765640000006044820152606401610839565b8051610cdb90601190602084019061274f565b5050565b600d546001600160a01b03610100909104163314610d0f5760405162461bcd60e51b815260040161083990612c04565b807f000000000000000000000000000000000000000000000000000000000000000081600b54610d3f9190612c8a565b1115610d8d5760405162461bcd60e51b815260206004820152601c60248201527f45786365656473206d617820726573657276656420616c6c6f776564000000006044820152606401610839565b60008211610dce5760405162461bcd60e51b815260206004820152600e60248201526d1a5b9d985b1a5917d85b5bdd5b9d60921b6044820152606401610839565b6001600160a01b038316610e165760405162461bcd60e51b815260206004820152600f60248201526e696e76616c69645f6164647265737360881b6044820152606401610839565b610e1f82611a3b565b61096f8383611a55565b6000818152600260205260408120546001600160a01b03168061072c5760405162461bcd60e51b815260206004820152602960248201527f4552433732313a206f776e657220717565727920666f72206e6f6e657869737460448201526832b73a103a37b5b2b760b91b6064820152608401610839565b60006001600160a01b038216610f0b5760405162461bcd60e51b815260206004820152602a60248201527f4552433732313a2062616c616e636520717565727920666f7220746865207a65604482015269726f206164647265737360b01b6064820152608401610839565b506001600160a01b031660009081526003602052604090205490565b600d546001600160a01b03610100909104163314610f575760405162461bcd60e51b815260040161083990612c04565b610b5f6000611b4e565b600d546001600160a01b03610100909104163314610f915760405162461bcd60e51b815260040161083990612c04565b610b5f611ba8565b60606001805461074190612d18565b6000610a8c600a5490565b600d5460ff1615610ff95760405162461bcd60e51b815260206004820152601060248201526f14185d5cd8589b194e881c185d5cd95960821b6044820152606401610839565b601054421015801561100c575060105415155b6110515760405162461bcd60e51b815260206004820152601660248201527514d85b1948191a59081b9bdd081cdd185c9d081e595d60521b6044820152606401610839565b600081116110925760405162461bcd60e51b815260206004820152600e60248201526d1a5b9d985b1a5917d85b5bdd5b9d60921b6044820152606401610839565b346110bd827f0000000000000000000000000000000000000000000000000000000000000000612cb6565b11156111035760405162461bcd60e51b8152602060048201526015602482015274115512081d985b1d59481b9bdd0818dbdc9c9958dd605a1b6044820152606401610839565b61110d3382611a55565b50565b6001600160a01b0382163314156111695760405162461bcd60e51b815260206004820152601960248201527f4552433732313a20617070726f766520746f2063616c6c6572000000000000006044820152606401610839565b3360008181526005602090815260408083206001600160a01b03871680855290835292819020805460ff191686151590811790915590519081529192917f17307eab39ab6107e8899845ad3d59bd9653f200f220920489ca2b5937696c31910160405180910390a35050565b6111df3383611591565b6111fb5760405162461bcd60e51b815260040161083990612c39565b61120784848484611c23565b50505050565b6000818152600260205260409020546060906001600160a01b031661128e5760405162461bcd60e51b815260206004820152603160248201527f45524337323155524953746f726167653a2055524920717565727920666f72206044820152703737b732bc34b9ba32b73a103a37b5b2b760791b6064820152608401610839565b6000828152601260205260409020544210156113075760405162461bcd60e51b815260206004820152603260248201527f45524337323155524953746f726167653a2055524920717565727920666f72206044820152713737b7103932bb32b0b632b2103a37b5b2b760711b6064820152608401610839565b61072c82611c56565b6060600f8054806020026020016040519081016040528092919081815260200182805480156107ba57602002820191906000526020600020905b81546001600160a01b0316815260019091019060200180831161134a575050505050905090565b600061137b610fa8565b7f0000000000000000000000000000000000000000000000000000000000000000610a82565b606060006113ae83610ea0565b9050806113cf5760408051600080825260208201909252905b509392505050565b60008167ffffffffffffffff8111156113ea576113ea612dd4565b604051908082528060200260200182016040528015611413578160200160208202803683370190505b50905060005b828110156113c75761142b8582610a91565b82828151811061143d5761143d612dbe565b60209081029190910101528061145281612d4d565b915050611419565b50919050565b600d546001600160a01b036101009091041633146114905760405162461bcd60e51b815260040161083990612c04565b6001600160a01b0381166114f55760405162461bcd60e51b815260206004820152602660248201527f4f776e61626c653a206e6577206f776e657220697320746865207a65726f206160448201526564647265737360d01b6064820152608401610839565b61110d81611b4e565b60006001600160e01b0319821663780e9d6360e01b148061072c575061072c82611d31565b600081815260046020526040902080546001600160a01b0319166001600160a01b038416908117909155819061155882610e29565b6001600160a01b03167f8c5be1e5ebec7d5bd14f71427d1e84f3dd0314c0f7b2291e5b200ac8c7c3b92560405160405180910390a45050565b6000818152600260205260408120546001600160a01b031661160a5760405162461bcd60e51b815260206004820152602c60248201527f4552433732313a206f70657261746f7220717565727920666f72206e6f6e657860448201526b34b9ba32b73a103a37b5b2b760a11b6064820152608401610839565b600061161583610e29565b9050806001600160a01b0316846001600160a01b031614806116505750836001600160a01b0316611645846107c4565b6001600160a01b0316145b8061168057506001600160a01b0380821660009081526005602090815260408083209388168352929052205460ff165b949350505050565b826001600160a01b031661169b82610e29565b6001600160a01b0316146117035760405162461bcd60e51b815260206004820152602960248201527f4552433732313a207472616e73666572206f6620746f6b656e2074686174206960448201526839903737ba1037bbb760b91b6064820152608401610839565b6001600160a01b0382166117655760405162461bcd60e51b8152602060048201526024808201527f4552433732313a207472616e7366657220746f20746865207a65726f206164646044820152637265737360e01b6064820152608401610839565b611770838383611d81565b61177b600082611523565b6001600160a01b03831660009081526003602052604081208054600192906117a4908490612cd5565b90915550506001600160a01b03821660009081526003602052604081208054600192906117d2908490612c8a565b909155505060008181526002602052604080822080546001600160a01b0319166001600160a01b0386811691821790925591518493918716917fddf252ad1be2c89b69c2b068fc378daa952ba7f163c4a11628f55a4df523b3ef91a4505050565b6002600e5414156118865760405162461bcd60e51b815260206004820152601f60248201527f5265656e7472616e637947756172643a207265656e7472616e742063616c6c006044820152606401610839565b6002600e55600f5460009061189b9047612ca2565b9050600081116118ed5760405162461bcd60e51b815260206004820152601760248201527f43616e27742073706c6974207a65726f207368617265730000000000000000006044820152606401610839565b60005b600f5481101561199f577f7084f5476618d8e60b11ef0d7d3f06914655adb8793e28ff7f018d4c76d505d5600f828154811061192e5761192e612dbe565b60009182526020918290200154604080516001600160a01b0390921682529181018590520160405180910390a161198d82600f838154811061197257611972612dbe565b6000918252602090912001546001600160a01b031690611d8c565b8061199781612d4d565b9150506118f0565b50506001600e55565b600d5460ff166119f15760405162461bcd60e51b815260206004820152601460248201527314185d5cd8589b194e881b9bdd081c185d5cd95960621b6044820152606401610839565b600d805460ff191690557f5db9ee0a495bf2e6ff9c91a7834c1ba4fdd244a5e8aa4e537bd38aeae4b073aa335b6040516001600160a01b03909116815260200160405180910390a1565b80600b6000828254611a4d9190612c8a565b909155505050565b6002600e541415611aa85760405162461bcd60e51b815260206004820152601f60248201527f5265656e7472616e637947756172643a207265656e7472616e742063616c6c006044820152606401610839565b6002600e5560005b81811015611b44576000611ac2611ea5565b90507f00000000000000000000000000000000000000000000000000000000000000006008541015611b3157611b187f000000000000000000000000000000000000000000000000000000000000000042612c8a565b600082815260126020526040902055611b318482612072565b5080611b3c81612d4d565b915050611ab0565b50506001600e5550565b600d80546001600160a01b03838116610100818102610100600160a81b031985161790945560405193909204169182907f8be0079c531659141344cd1fd0a4f28419497f9722a3daafe3b4186f6b6457e090600090a35050565b600d5460ff1615611bee5760405162461bcd60e51b815260206004820152601060248201526f14185d5cd8589b194e881c185d5cd95960821b6044820152606401610839565b600d805460ff191660011790557f62e78cea01bee320cd4e420270b5ea74000d11b0c9f74754ebdbfc544b05a258611a1e3390565b611c2e848484611688565b611c3a8484848461208c565b6112075760405162461bcd60e51b815260040161083990612bb2565b6000818152600260205260409020546060906001600160a01b0316611cd55760405162461bcd60e51b815260206004820152602f60248201527f4552433732314d657461646174613a2055524920717565727920666f72206e6f60448201526e3732bc34b9ba32b73a103a37b5b2b760891b6064820152608401610839565b6000611cdf612199565b90506000815111611cff5760405180602001604052806000815250611d2a565b80611d09846121a8565b604051602001611d1a929190612aae565b6040516020818303038152906040525b9392505050565b60006001600160e01b031982166380ac58cd60e01b1480611d6257506001600160e01b03198216635b5e139f60e01b145b8061072c57506301ffc9a760e01b6001600160e01b031983161461072c565b61096f8383836122a6565b80471015611ddc5760405162461bcd60e51b815260206004820152601d60248201527f416464726573733a20696e73756666696369656e742062616c616e63650000006044820152606401610839565b6000826001600160a01b03168260405160006040518083038185875af1925050503d8060008114611e29576040519150601f19603f3d011682016040523d82523d6000602084013e611e2e565b606091505b505090508061096f5760405162461bcd60e51b815260206004820152603a60248201527f416464726573733a20756e61626c6520746f2073656e642076616c75652c207260448201527f6563697069656e74206d617920686176652072657665727465640000000000006064820152608401610839565b600080611eb0611371565b11611ef85760405162461bcd60e51b81526020600482015260186024820152774e6f206d6f726520746f6b656e7320617661696c61626c6560401b6044820152606401610839565b6000611f02610fa8565b611f2c907f0000000000000000000000000000000000000000000000000000000000000000612cd5565b6040516bffffffffffffffffffffffff1933606090811b8216602084015241901b166034820152446048820152456068820152426088820152909150600090829060a8016040516020818303038152906040528051906020012060001c611f939190612d68565b6000818152600c602052604081205491925090611fb1575080611fc2565b506000818152600c60205260409020545b600c6000611fd1600186612cd5565b8152602001908152602001600020546000141561200757611ff3600184612cd5565b6000838152600c6020526040902055612037565b600c6000612016600186612cd5565b81526020808201929092526040908101600090812054858252600c90935220555b61203f612318565b5061206a7f000000000000000000000000000000000000000000000000000000000000000082612c8a565b935050505090565b610cdb828260405180602001604052806000815250612386565b60006001600160a01b0384163b1561218e57604051630a85bd0160e11b81526001600160a01b0385169063150b7a02906120d0903390899088908890600401612add565b602060405180830381600087803b1580156120ea57600080fd5b505af192505050801561211a575060408051601f3d908101601f1916820190925261211791810190612a03565b60015b612174573d808015612148576040519150601f19603f3d011682016040523d82523d6000602084013e61214d565b606091505b50805161216c5760405162461bcd60e51b815260040161083990612bb2565b805181602001fd5b6001600160e01b031916630a85bd0160e11b149050611680565b506001949350505050565b60606011805461074190612d18565b6060816121cc5750506040805180820190915260018152600360fc1b602082015290565b8160005b81156121f657806121e081612d4d565b91506121ef9050600a83612ca2565b91506121d0565b60008167ffffffffffffffff81111561221157612211612dd4565b6040519080825280601f01601f19166020018201604052801561223b576020820181803683370190505b5090505b841561168057612250600183612cd5565b915061225d600a86612d68565b612268906030612c8a565b60f81b81838151811061227d5761227d612dbe565b60200101906001600160f81b031916908160001a90535061229f600a86612ca2565b945061223f565b6122b18383836123b9565b600d5460ff161561096f5760405162461bcd60e51b815260206004820152602b60248201527f4552433732315061757361626c653a20746f6b656e207472616e73666572207760448201526a1a1a5b19481c185d5cd95960aa1b6064820152608401610839565b600080612323611371565b1161236b5760405162461bcd60e51b81526020600482015260186024820152774e6f206d6f726520746f6b656e7320617661696c61626c6560401b6044820152606401610839565b6000612376600a5490565b9050610a8c600a80546001019055565b6123908383612471565b61239d600084848461208c565b61096f5760405162461bcd60e51b815260040161083990612bb2565b6001600160a01b0383166124145761240f81600880546000838152600960205260408120829055600182018355919091527ff3f7a9fe364faab93b216da50a3214154f22a0a2b415b23a84c8169e8b636ee30155565b612437565b816001600160a01b0316836001600160a01b0316146124375761243783826125bf565b6001600160a01b03821661244e5761096f8161265c565b826001600160a01b0316826001600160a01b03161461096f5761096f828261270b565b6001600160a01b0382166124c75760405162461bcd60e51b815260206004820181905260248201527f4552433732313a206d696e7420746f20746865207a65726f20616464726573736044820152606401610839565b6000818152600260205260409020546001600160a01b03161561252c5760405162461bcd60e51b815260206004820152601c60248201527f4552433732313a20746f6b656e20616c7265616479206d696e746564000000006044820152606401610839565b61253860008383611d81565b6001600160a01b0382166000908152600360205260408120805460019290612561908490612c8a565b909155505060008181526002602052604080822080546001600160a01b0319166001600160a01b03861690811790915590518392907fddf252ad1be2c89b69c2b068fc378daa952ba7f163c4a11628f55a4df523b3ef908290a45050565b600060016125cc84610ea0565b6125d69190612cd5565b600083815260076020526040902054909150808214612629576001600160a01b03841660009081526006602090815260408083208584528252808320548484528184208190558352600790915290208190555b5060009182526007602090815260408084208490556001600160a01b039094168352600681528383209183525290812055565b60085460009061266e90600190612cd5565b6000838152600960205260408120546008805493945090928490811061269657612696612dbe565b9060005260206000200154905080600883815481106126b7576126b7612dbe565b60009182526020808320909101929092558281526009909152604080822084905585825281205560088054806126ef576126ef612da8565b6001900381819060005260206000200160009055905550505050565b600061271683610ea0565b6001600160a01b039093166000908152600660209081526040808320868452825280832085905593825260079052919091209190915550565b82805461275b90612d18565b90600052602060002090601f01602090048101928261277d57600085556127c3565b82601f1061279657805160ff19168380011785556127c3565b828001600101855582156127c3579182015b828111156127c35782518255916020019190600101906127a8565b506127cf9291506127d3565b5090565b5b808211156127cf57600081556001016127d4565b600067ffffffffffffffff8084111561280357612803612dd4565b604051601f8501601f19908116603f0116810190828211818310171561282b5761282b612dd4565b8160405280935085815286868601111561284457600080fd5b858560208301376000602087830101525050509392505050565b80356001600160a01b038116811461287557600080fd5b919050565b60006020828403121561288c57600080fd5b611d2a8261285e565b600080604083850312156128a857600080fd5b6128b18361285e565b91506128bf6020840161285e565b90509250929050565b6000806000606084860312156128dd57600080fd5b6128e68461285e565b92506128f46020850161285e565b9150604084013590509250925092565b6000806000806080858703121561291a57600080fd5b6129238561285e565b93506129316020860161285e565b925060408501359150606085013567ffffffffffffffff81111561295457600080fd5b8501601f8101871361296557600080fd5b612974878235602084016127e8565b91505092959194509250565b6000806040838503121561299357600080fd5b61299c8361285e565b9150602083013580151581146129b157600080fd5b809150509250929050565b600080604083850312156129cf57600080fd5b6129d88361285e565b946020939093013593505050565b6000602082840312156129f857600080fd5b8135611d2a81612dea565b600060208284031215612a1557600080fd5b8151611d2a81612dea565b600060208284031215612a3257600080fd5b813567ffffffffffffffff811115612a4957600080fd5b8201601f81018413612a5a57600080fd5b611680848235602084016127e8565b600060208284031215612a7b57600080fd5b5035919050565b60008151808452612a9a816020860160208601612cec565b601f01601f19169290920160200192915050565b60008351612ac0818460208801612cec565b835190830190612ad4818360208801612cec565b01949350505050565b6001600160a01b0385811682528416602082015260408101839052608060608201819052600090612b1090830184612a82565b9695505050505050565b6020808252825182820181905260009190848201906040850190845b81811015612b5b5783516001600160a01b031683529284019291840191600101612b36565b50909695505050505050565b6020808252825182820181905260009190848201906040850190845b81811015612b5b57835183529284019291840191600101612b83565b602081526000611d2a6020830184612a82565b60208082526032908201527f4552433732313a207472616e7366657220746f206e6f6e20455243373231526560408201527131b2b4bb32b91034b6b83632b6b2b73a32b960711b606082015260800190565b6020808252818101527f4f776e61626c653a2063616c6c6572206973206e6f7420746865206f776e6572604082015260600190565b60208082526031908201527f4552433732313a207472616e736665722063616c6c6572206973206e6f74206f6040820152701ddb995c881b9bdc88185c1c1c9bdd9959607a1b606082015260800190565b60008219821115612c9d57612c9d612d7c565b500190565b600082612cb157612cb1612d92565b500490565b6000816000190483118215151615612cd057612cd0612d7c565b500290565b600082821015612ce757612ce7612d7c565b500390565b60005b83811015612d07578181015183820152602001612cef565b838111156112075750506000910152565b600181811c90821680612d2c57607f821691505b6020821081141561145a57634e487b7160e01b600052602260045260246000fd5b6000600019821415612d6157612d61612d7c565b5060010190565b600082612d7757612d77612d92565b500690565b634e487b7160e01b600052601160045260246000fd5b634e487b7160e01b600052601260045260246000fd5b634e487b7160e01b600052603160045260246000fd5b634e487b7160e01b600052603260045260246000fd5b634e487b7160e01b600052604160045260246000fd5b6001600160e01b03198116811461110d57600080fdfea2646970667358221220d190334a52a0cec95b9feb9a38dc01f7912b87de7cfd2f1deb65d62f3e510b8464736f6c63430008070033",
  "devdoc": {
    "author": "startfi team : Eman herawy",
    "kind": "dev",
    "methods": {
      "approve(address,uint256)": {
        "details": "See {IERC721-approve}."
      },
      "availableTokenCount()": {
        "details": "Check whether tokens are still available",
        "returns": {
          "_0": "the available token count"
        }
      },
      "availableTokenForSale()": {
        "details": "Check whether tokens are still available for sale",
        "returns": {
          "_0": "the available token count"
        }
      },
      "balanceOf(address)": {
        "details": "See {IERC721-balanceOf}."
      },
      "getApproved(uint256)": {
        "details": "See {IERC721-getApproved}."
      },
      "isApprovedForAll(address,address)": {
        "details": "See {IERC721-isApprovedForAll}."
      },
      "maxSupply()": {
        "details": "Get the max Supply",
        "returns": {
          "_0": "the maximum token count"
        }
      },
      "mint(uint256)": {
        "details": "called only when sale is startedcalled only when not paused`_numberOfNFTs` can't zeromust not xceed the cap",
        "params": {
          "_numberOfNFTs": "number of NFT to be minted emit Transfer"
        }
      },
      "mintReservedNFTs(address,uint256)": {
        "details": "`_to` can't hold more than the `maxToMintPerAddress``_to` can't be empty`_numberOfNFTs` can't zeromust not xceed the cap",
        "params": {
          "_numberOfNFTs": "number of NFT to be minted emit Transfer",
          "_to": "NFT holder address"
        }
      },
      "name()": {
        "details": "See {IERC721Metadata-name}."
      },
      "owner()": {
        "details": "Returns the address of the current owner."
      },
      "ownerNFTs(address)": {
        "params": {
          "owner_": "address of the NFTs' owner"
        },
        "returns": {
          "_0": "Number of NFTs owened by the `owner_`"
        }
      },
      "ownerOf(uint256)": {
        "details": "See {IERC721-ownerOf}."
      },
      "pause()": {
        "details": "Pauses all token transfers. See {ERC721Pausable} and {Pausable-_pause}. Requirements: - the caller must have the `PAUSER_ROLE`."
      },
      "paused()": {
        "details": "Returns true if the contract is paused, and false otherwise."
      },
      "renounceOwnership()": {
        "details": "Leaves the contract without owner. It will not be possible to call `onlyOwner` functions anymore. Can only be called by the current owner. NOTE: Renouncing ownership will leave the contract without an owner, thereby removing any functionality that is only available to the owner."
      },
      "reserved()": {
        "details": "Get reserved amount",
        "returns": {
          "_0": "the token amount reserved"
        }
      },
      "safeTransferFrom(address,address,uint256)": {
        "details": "See {IERC721-safeTransferFrom}."
      },
      "safeTransferFrom(address,address,uint256,bytes)": {
        "details": "See {IERC721-safeTransferFrom}."
      },
      "setApprovalForAll(address,bool)": {
        "details": "See {IERC721-setApprovalForAll}."
      },
      "setBaseURI(string)": {
        "details": "`_URI` can't be empty",
        "params": {
          "_URI": "new base URI"
        }
      },
      "supportsInterface(bytes4)": {
        "details": "See {IERC165-supportsInterface}."
      },
      "symbol()": {
        "details": "See {IERC721Metadata-symbol}."
      },
      "tokenByIndex(uint256)": {
        "details": "See {IERC721Enumerable-tokenByIndex}."
      },
      "tokenCount()": {
        "details": "Get the current token count",
        "returns": {
          "_0": "the created token count"
        }
      },
      "tokenOfOwnerByIndex(address,uint256)": {
        "details": "See {IERC721Enumerable-tokenOfOwnerByIndex}."
      },
      "tokenURI(uint256)": {
        "details": "See {IERC721Metadata-tokenURI}."
      },
      "totalSupply()": {
        "details": "See {IERC721Enumerable-totalSupply}."
      },
      "transferFrom(address,address,uint256)": {
        "details": "See {IERC721-transferFrom}."
      },
      "transferOwnership(address)": {
        "details": "Transfers ownership of the contract to a new account (`newOwner`). Can only be called by the current owner."
      },
      "unpause()": {
        "details": "Unpauses all token transfers. See {ERC721Pausable} and {Pausable-_unpause}. Requirements: - the caller must have the `PAUSER_ROLE`."
      },
      "updateSaleStartTime(uint256)": {
        "details": "`__startTimeURI` must be more than the current time",
        "params": {
          "_startTime": "new _startTime"
        }
      },
      "withdraw()": {
        "details": "Withdraw accumulated balance for `wallets`"
      }
    },
    "version": 1
  },
  "userdoc": {
    "kind": "user",
    "methods": {
      "mint(uint256)": {
        "notice": "caller should pay the required price"
      },
      "mintReservedNFTs(address,uint256)": {
        "notice": "Only woner can call it"
      },
      "setBaseURI(string)": {
        "notice": "Only woner can call it"
      },
      "updateSaleStartTime(uint256)": {
        "notice": "Only woner can call it"
      }
    },
    "version": 1
  },
  "storageLayout": {
    "storage": [
      {
        "astId": 345,
        "contract": "contracts/launchpadProjects/EightBall.sol:EightBall",
        "label": "_name",
        "offset": 0,
        "slot": "0",
        "type": "t_string_storage"
      },
      {
        "astId": 347,
        "contract": "contracts/launchpadProjects/EightBall.sol:EightBall",
        "label": "_symbol",
        "offset": 0,
        "slot": "1",
        "type": "t_string_storage"
      },
      {
        "astId": 351,
        "contract": "contracts/launchpadProjects/EightBall.sol:EightBall",
        "label": "_owners",
        "offset": 0,
        "slot": "2",
        "type": "t_mapping(t_uint256,t_address)"
      },
      {
        "astId": 355,
        "contract": "contracts/launchpadProjects/EightBall.sol:EightBall",
        "label": "_balances",
        "offset": 0,
        "slot": "3",
        "type": "t_mapping(t_address,t_uint256)"
      },
      {
        "astId": 359,
        "contract": "contracts/launchpadProjects/EightBall.sol:EightBall",
        "label": "_tokenApprovals",
        "offset": 0,
        "slot": "4",
        "type": "t_mapping(t_uint256,t_address)"
      },
      {
        "astId": 365,
        "contract": "contracts/launchpadProjects/EightBall.sol:EightBall",
        "label": "_operatorApprovals",
        "offset": 0,
        "slot": "5",
        "type": "t_mapping(t_address,t_mapping(t_address,t_bool))"
      },
      {
        "astId": 1284,
        "contract": "contracts/launchpadProjects/EightBall.sol:EightBall",
        "label": "_ownedTokens",
        "offset": 0,
        "slot": "6",
        "type": "t_mapping(t_address,t_mapping(t_uint256,t_uint256))"
      },
      {
        "astId": 1288,
        "contract": "contracts/launchpadProjects/EightBall.sol:EightBall",
        "label": "_ownedTokensIndex",
        "offset": 0,
        "slot": "7",
        "type": "t_mapping(t_uint256,t_uint256)"
      },
      {
        "astId": 1291,
        "contract": "contracts/launchpadProjects/EightBall.sol:EightBall",
        "label": "_allTokens",
        "offset": 0,
        "slot": "8",
        "type": "t_array(t_uint256)dyn_storage"
      },
      {
        "astId": 1295,
        "contract": "contracts/launchpadProjects/EightBall.sol:EightBall",
        "label": "_allTokensIndex",
        "offset": 0,
        "slot": "9",
        "type": "t_mapping(t_uint256,t_uint256)"
      },
      {
        "astId": 3855,
        "contract": "contracts/launchpadProjects/EightBall.sol:EightBall",
        "label": "_tokenCount",
        "offset": 0,
        "slot": "10",
        "type": "t_struct(Counter)2027_storage"
      },
      {
        "astId": 3978,
        "contract": "contracts/launchpadProjects/EightBall.sol:EightBall",
        "label": "_totalReserveSupply",
        "offset": 0,
        "slot": "11",
        "type": "t_uint256"
      },
      {
        "astId": 3623,
        "contract": "contracts/launchpadProjects/EightBall.sol:EightBall",
        "label": "tokenMatrix",
        "offset": 0,
        "slot": "12",
        "type": "t_mapping(t_uint256,t_uint256)"
      },
      {
        "astId": 127,
        "contract": "contracts/launchpadProjects/EightBall.sol:EightBall",
        "label": "_paused",
        "offset": 0,
        "slot": "13",
        "type": "t_bool"
      },
      {
        "astId": 7,
        "contract": "contracts/launchpadProjects/EightBall.sol:EightBall",
        "label": "_owner",
        "offset": 1,
        "slot": "13",
        "type": "t_address"
      },
      {
        "astId": 212,
        "contract": "contracts/launchpadProjects/EightBall.sol:EightBall",
        "label": "_status",
        "offset": 0,
        "slot": "14",
        "type": "t_uint256"
      },
      {
        "astId": 3237,
        "contract": "contracts/launchpadProjects/EightBall.sol:EightBall",
        "label": "_wallets",
        "offset": 0,
        "slot": "15",
        "type": "t_array(t_address)dyn_storage"
      },
      {
        "astId": 4173,
        "contract": "contracts/launchpadProjects/EightBall.sol:EightBall",
        "label": "startTimeSale",
        "offset": 0,
        "slot": "16",
        "type": "t_uint256"
      },
      {
        "astId": 4175,
        "contract": "contracts/launchpadProjects/EightBall.sol:EightBall",
        "label": "_baseTokenURI",
        "offset": 0,
        "slot": "17",
        "type": "t_string_storage"
      },
      {
        "astId": 4179,
        "contract": "contracts/launchpadProjects/EightBall.sol:EightBall",
        "label": "_tokenRevealTime",
        "offset": 0,
        "slot": "18",
        "type": "t_mapping(t_uint256,t_uint256)"
      }
    ],
    "types": {
      "t_address": {
        "encoding": "inplace",
        "label": "address",
        "numberOfBytes": "20"
      },
      "t_array(t_address)dyn_storage": {
        "base": "t_address",
        "encoding": "dynamic_array",
        "label": "address[]",
        "numberOfBytes": "32"
      },
      "t_array(t_uint256)dyn_storage": {
        "base": "t_uint256",
        "encoding": "dynamic_array",
        "label": "uint256[]",
        "numberOfBytes": "32"
      },
      "t_bool": {
        "encoding": "inplace",
        "label": "bool",
        "numberOfBytes": "1"
      },
      "t_mapping(t_address,t_bool)": {
        "encoding": "mapping",
        "key": "t_address",
        "label": "mapping(address => bool)",
        "numberOfBytes": "32",
        "value": "t_bool"
      },
      "t_mapping(t_address,t_mapping(t_address,t_bool))": {
        "encoding": "mapping",
        "key": "t_address",
        "label": "mapping(address => mapping(address => bool))",
        "numberOfBytes": "32",
        "value": "t_mapping(t_address,t_bool)"
      },
      "t_mapping(t_address,t_mapping(t_uint256,t_uint256))": {
        "encoding": "mapping",
        "key": "t_address",
        "label": "mapping(address => mapping(uint256 => uint256))",
        "numberOfBytes": "32",
        "value": "t_mapping(t_uint256,t_uint256)"
      },
      "t_mapping(t_address,t_uint256)": {
        "encoding": "mapping",
        "key": "t_address",
        "label": "mapping(address => uint256)",
        "numberOfBytes": "32",
        "value": "t_uint256"
      },
      "t_mapping(t_uint256,t_address)": {
        "encoding": "mapping",
        "key": "t_uint256",
        "label": "mapping(uint256 => address)",
        "numberOfBytes": "32",
        "value": "t_address"
      },
      "t_mapping(t_uint256,t_uint256)": {
        "encoding": "mapping",
        "key": "t_uint256",
        "label": "mapping(uint256 => uint256)",
        "numberOfBytes": "32",
        "value": "t_uint256"
      },
      "t_string_storage": {
        "encoding": "bytes",
        "label": "string",
        "numberOfBytes": "32"
      },
      "t_struct(Counter)2027_storage": {
        "encoding": "inplace",
        "label": "struct Counters.Counter",
        "members": [
          {
            "astId": 2026,
            "contract": "contracts/launchpadProjects/EightBall.sol:EightBall",
            "label": "_value",
            "offset": 0,
            "slot": "0",
            "type": "t_uint256"
          }
        ],
        "numberOfBytes": "32"
      },
      "t_uint256": {
        "encoding": "inplace",
        "label": "uint256",
        "numberOfBytes": "32"
      }
    }
  }
}