{
  "address": "0xDC924F668CBbB652af03238d8bF3599c8d012401",
  "abi": [
    {
      "inputs": [
        {
          "internalType": "string",
          "name": "baseTokenURI_",
          "type": "string"
        },
        {
          "internalType": "uint256",
          "name": "startTimeSale_",
          "type": "uint256"
        },
        {
          "internalType": "uint256",
          "name": "mintPrice_",
          "type": "uint256"
        },
        {
          "internalType": "uint256",
          "name": "maxSupply_",
          "type": "uint256"
        },
        {
          "internalType": "uint256",
          "name": "revealTime_",
          "type": "uint256"
        },
        {
          "internalType": "uint256",
          "name": "reserved_",
          "type": "uint256"
        },
        {
          "internalType": "address[]",
          "name": "wallets_",
          "type": "address[]"
        },
        {
          "internalType": "address",
          "name": "owner_",
          "type": "address"
        }
      ],
      "stateMutability": "nonpayable",
      "type": "constructor"
    },
    {
      "anonymous": false,
      "inputs": [
        {
          "indexed": true,
          "internalType": "address",
          "name": "owner",
          "type": "address"
        },
        {
          "indexed": true,
          "internalType": "address",
          "name": "approved",
          "type": "address"
        },
        {
          "indexed": true,
          "internalType": "uint256",
          "name": "tokenId",
          "type": "uint256"
        }
      ],
      "name": "Approval",
      "type": "event"
    },
    {
      "anonymous": false,
      "inputs": [
        {
          "indexed": true,
          "internalType": "address",
          "name": "owner",
          "type": "address"
        },
        {
          "indexed": true,
          "internalType": "address",
          "name": "operator",
          "type": "address"
        },
        {
          "indexed": false,
          "internalType": "bool",
          "name": "approved",
          "type": "bool"
        }
      ],
      "name": "ApprovalForAll",
      "type": "event"
    },
    {
      "anonymous": false,
      "inputs": [
        {
          "indexed": true,
          "internalType": "address",
          "name": "previousOwner",
          "type": "address"
        },
        {
          "indexed": true,
          "internalType": "address",
          "name": "newOwner",
          "type": "address"
        }
      ],
      "name": "OwnershipTransferred",
      "type": "event"
    },
    {
      "anonymous": false,
      "inputs": [
        {
          "indexed": false,
          "internalType": "address",
          "name": "account",
          "type": "address"
        }
      ],
      "name": "Paused",
      "type": "event"
    },
    {
      "anonymous": false,
      "inputs": [
        {
          "indexed": true,
          "internalType": "address",
          "name": "from",
          "type": "address"
        },
        {
          "indexed": true,
          "internalType": "address",
          "name": "to",
          "type": "address"
        },
        {
          "indexed": true,
          "internalType": "uint256",
          "name": "tokenId",
          "type": "uint256"
        }
      ],
      "name": "Transfer",
      "type": "event"
    },
    {
      "anonymous": false,
      "inputs": [
        {
          "indexed": false,
          "internalType": "address",
          "name": "account",
          "type": "address"
        }
      ],
      "name": "Unpaused",
      "type": "event"
    },
    {
      "anonymous": false,
      "inputs": [
        {
          "indexed": false,
          "internalType": "address",
          "name": "payee",
          "type": "address"
        },
        {
          "indexed": false,
          "internalType": "uint256",
          "name": "amount",
          "type": "uint256"
        }
      ],
      "name": "Withdrawn",
      "type": "event"
    },
    {
      "inputs": [
        {
          "internalType": "address",
          "name": "to",
          "type": "address"
        },
        {
          "internalType": "uint256",
          "name": "tokenId",
          "type": "uint256"
        }
      ],
      "name": "approve",
      "outputs": [],
      "stateMutability": "nonpayable",
      "type": "function"
    },
    {
      "inputs": [],
      "name": "availableTokenCount",
      "outputs": [
        {
          "internalType": "uint256",
          "name": "",
          "type": "uint256"
        }
      ],
      "stateMutability": "view",
      "type": "function"
    },
    {
      "inputs": [],
      "name": "availableTokenForSale",
      "outputs": [
        {
          "internalType": "uint256",
          "name": "",
          "type": "uint256"
        }
      ],
      "stateMutability": "view",
      "type": "function"
    },
    {
      "inputs": [
        {
          "internalType": "address",
          "name": "owner",
          "type": "address"
        }
      ],
      "name": "balanceOf",
      "outputs": [
        {
          "internalType": "uint256",
          "name": "",
          "type": "uint256"
        }
      ],
      "stateMutability": "view",
      "type": "function"
    },
    {
      "inputs": [
        {
          "internalType": "uint256",
          "name": "tokenId",
          "type": "uint256"
        }
      ],
      "name": "getApproved",
      "outputs": [
        {
          "internalType": "address",
          "name": "",
          "type": "address"
        }
      ],
      "stateMutability": "view",
      "type": "function"
    },
    {
      "inputs": [],
      "name": "getWallets",
      "outputs": [
        {
          "internalType": "address[]",
          "name": "",
          "type": "address[]"
        }
      ],
      "stateMutability": "view",
      "type": "function"
    },
    {
      "inputs": [
        {
          "internalType": "address",
          "name": "owner",
          "type": "address"
        },
        {
          "internalType": "address",
          "name": "operator",
          "type": "address"
        }
      ],
      "name": "isApprovedForAll",
      "outputs": [
        {
          "internalType": "bool",
          "name": "",
          "type": "bool"
        }
      ],
      "stateMutability": "view",
      "type": "function"
    },
    {
      "inputs": [],
      "name": "maxSupply",
      "outputs": [
        {
          "internalType": "uint256",
          "name": "",
          "type": "uint256"
        }
      ],
      "stateMutability": "view",
      "type": "function"
    },
    {
      "inputs": [
        {
          "internalType": "uint256",
          "name": "_numberOfNFTs",
          "type": "uint256"
        }
      ],
      "name": "mint",
      "outputs": [],
      "stateMutability": "payable",
      "type": "function"
    },
    {
      "inputs": [],
      "name": "mintPrice",
      "outputs": [
        {
          "internalType": "uint256",
          "name": "",
          "type": "uint256"
        }
      ],
      "stateMutability": "view",
      "type": "function"
    },
    {
      "inputs": [
        {
          "internalType": "address",
          "name": "_to",
          "type": "address"
        },
        {
          "internalType": "uint256",
          "name": "_numberOfNFTs",
          "type": "uint256"
        }
      ],
      "name": "mintReservedNFTs",
      "outputs": [],
      "stateMutability": "nonpayable",
      "type": "function"
    },
    {
      "inputs": [],
      "name": "name",
      "outputs": [
        {
          "internalType": "string",
          "name": "",
          "type": "string"
        }
      ],
      "stateMutability": "view",
      "type": "function"
    },
    {
      "inputs": [],
      "name": "owner",
      "outputs": [
        {
          "internalType": "address",
          "name": "",
          "type": "address"
        }
      ],
      "stateMutability": "view",
      "type": "function"
    },
    {
      "inputs": [
        {
          "internalType": "address",
          "name": "owner_",
          "type": "address"
        }
      ],
      "name": "ownerNFTs",
      "outputs": [
        {
          "internalType": "uint256[]",
          "name": "",
          "type": "uint256[]"
        }
      ],
      "stateMutability": "view",
      "type": "function"
    },
    {
      "inputs": [
        {
          "internalType": "uint256",
          "name": "tokenId",
          "type": "uint256"
        }
      ],
      "name": "ownerOf",
      "outputs": [
        {
          "internalType": "address",
          "name": "",
          "type": "address"
        }
      ],
      "stateMutability": "view",
      "type": "function"
    },
    {
      "inputs": [],
      "name": "pause",
      "outputs": [],
      "stateMutability": "nonpayable",
      "type": "function"
    },
    {
      "inputs": [],
      "name": "paused",
      "outputs": [
        {
          "internalType": "bool",
          "name": "",
          "type": "bool"
        }
      ],
      "stateMutability": "view",
      "type": "function"
    },
    {
      "inputs": [],
      "name": "renounceOwnership",
      "outputs": [],
      "stateMutability": "nonpayable",
      "type": "function"
    },
    {
      "inputs": [],
      "name": "reserved",
      "outputs": [
        {
          "internalType": "uint256",
          "name": "",
          "type": "uint256"
        }
      ],
      "stateMutability": "view",
      "type": "function"
    },
    {
      "inputs": [],
      "name": "revealTime",
      "outputs": [
        {
          "internalType": "uint256",
          "name": "",
          "type": "uint256"
        }
      ],
      "stateMutability": "view",
      "type": "function"
    },
    {
      "inputs": [
        {
          "internalType": "address",
          "name": "from",
          "type": "address"
        },
        {
          "internalType": "address",
          "name": "to",
          "type": "address"
        },
        {
          "internalType": "uint256",
          "name": "tokenId",
          "type": "uint256"
        }
      ],
      "name": "safeTransferFrom",
      "outputs": [],
      "stateMutability": "nonpayable",
      "type": "function"
    },
    {
      "inputs": [
        {
          "internalType": "address",
          "name": "from",
          "type": "address"
        },
        {
          "internalType": "address",
          "name": "to",
          "type": "address"
        },
        {
          "internalType": "uint256",
          "name": "tokenId",
          "type": "uint256"
        },
        {
          "internalType": "bytes",
          "name": "_data",
          "type": "bytes"
        }
      ],
      "name": "safeTransferFrom",
      "outputs": [],
      "stateMutability": "nonpayable",
      "type": "function"
    },
    {
      "inputs": [
        {
          "internalType": "address",
          "name": "operator",
          "type": "address"
        },
        {
          "internalType": "bool",
          "name": "approved",
          "type": "bool"
        }
      ],
      "name": "setApprovalForAll",
      "outputs": [],
      "stateMutability": "nonpayable",
      "type": "function"
    },
    {
      "inputs": [
        {
          "internalType": "string",
          "name": "_URI",
          "type": "string"
        }
      ],
      "name": "setBaseURI",
      "outputs": [],
      "stateMutability": "nonpayable",
      "type": "function"
    },
    {
      "inputs": [],
      "name": "startTimeSale",
      "outputs": [
        {
          "internalType": "uint256",
          "name": "",
          "type": "uint256"
        }
      ],
      "stateMutability": "view",
      "type": "function"
    },
    {
      "inputs": [
        {
          "internalType": "bytes4",
          "name": "interfaceId",
          "type": "bytes4"
        }
      ],
      "name": "supportsInterface",
      "outputs": [
        {
          "internalType": "bool",
          "name": "",
          "type": "bool"
        }
      ],
      "stateMutability": "view",
      "type": "function"
    },
    {
      "inputs": [],
      "name": "symbol",
      "outputs": [
        {
          "internalType": "string",
          "name": "",
          "type": "string"
        }
      ],
      "stateMutability": "view",
      "type": "function"
    },
    {
      "inputs": [
        {
          "internalType": "uint256",
          "name": "index",
          "type": "uint256"
        }
      ],
      "name": "tokenByIndex",
      "outputs": [
        {
          "internalType": "uint256",
          "name": "",
          "type": "uint256"
        }
      ],
      "stateMutability": "view",
      "type": "function"
    },
    {
      "inputs": [],
      "name": "tokenCount",
      "outputs": [
        {
          "internalType": "uint256",
          "name": "",
          "type": "uint256"
        }
      ],
      "stateMutability": "view",
      "type": "function"
    },
    {
      "inputs": [
        {
          "internalType": "address",
          "name": "owner",
          "type": "address"
        },
        {
          "internalType": "uint256",
          "name": "index",
          "type": "uint256"
        }
      ],
      "name": "tokenOfOwnerByIndex",
      "outputs": [
        {
          "internalType": "uint256",
          "name": "",
          "type": "uint256"
        }
      ],
      "stateMutability": "view",
      "type": "function"
    },
    {
      "inputs": [
        {
          "internalType": "uint256",
          "name": "tokenId",
          "type": "uint256"
        }
      ],
      "name": "tokenURI",
      "outputs": [
        {
          "internalType": "string",
          "name": "",
          "type": "string"
        }
      ],
      "stateMutability": "view",
      "type": "function"
    },
    {
      "inputs": [],
      "name": "totalReserveSupply",
      "outputs": [
        {
          "internalType": "uint256",
          "name": "",
          "type": "uint256"
        }
      ],
      "stateMutability": "view",
      "type": "function"
    },
    {
      "inputs": [],
      "name": "totalSupply",
      "outputs": [
        {
          "internalType": "uint256",
          "name": "",
          "type": "uint256"
        }
      ],
      "stateMutability": "view",
      "type": "function"
    },
    {
      "inputs": [
        {
          "internalType": "address",
          "name": "from",
          "type": "address"
        },
        {
          "internalType": "address",
          "name": "to",
          "type": "address"
        },
        {
          "internalType": "uint256",
          "name": "tokenId",
          "type": "uint256"
        }
      ],
      "name": "transferFrom",
      "outputs": [],
      "stateMutability": "nonpayable",
      "type": "function"
    },
    {
      "inputs": [
        {
          "internalType": "address",
          "name": "newOwner",
          "type": "address"
        }
      ],
      "name": "transferOwnership",
      "outputs": [],
      "stateMutability": "nonpayable",
      "type": "function"
    },
    {
      "inputs": [],
      "name": "unpause",
      "outputs": [],
      "stateMutability": "nonpayable",
      "type": "function"
    },
    {
      "inputs": [
        {
          "internalType": "uint256",
          "name": "_startTime",
          "type": "uint256"
        }
      ],
      "name": "updateSaleStartTime",
      "outputs": [],
      "stateMutability": "nonpayable",
      "type": "function"
    },
    {
      "inputs": [],
      "name": "withdraw",
      "outputs": [],
      "stateMutability": "nonpayable",
      "type": "function"
    }
  ],
  "transactionHash": "0xe15f47d5e1c517827ec83f84eae18acfb709c2749a920442534d39174111110a",
  "args": [
    "ipfs://QmY1DA4kK2B3B8pyTH5C7Gr8YqKomLKZyH8MY421wtGK9s/",
    1638895394,
    "60000000000000000",
    50,
    2,
    10,
    [
      "0x2819C6d61e4c83bc53dD17D4aa00deDBe35894AA",
      "0x4DECad41547aA81740Be6016ad402BA201Ec973b"
    ],
    "0xa1D2aC2b075194770D60d5ac4c7a30015010E1A0"
  ],
  "solcInputHash": "df88384d79ac377d6512e63a5cab07e0",
  "bytecode": "0x6101206040523480156200001257600080fd5b50604051620034a5380380620034a583398101604081905262000035916200041e565b818188876000878281816040518060400160405280601381526020017f546865204b696e6720436f6c6c656374696f6e00000000000000000000000000815250604051806040016040528060028152602001614b4360f01b8152508160009080519060200190620000a89291906200026f565b508051620000be9060019060208401906200026f565b50505060805260a052505060c05250600d55600e805460ff19169055620000e5336200013a565b620000f08162000194565b506001600f5580516200010b906010906020840190620002fe565b50508751620001229060119060208b01906200026f565b50505060e0939093526101005250620005c792505050565b600e80546001600160a01b03838116610100818102610100600160a81b031985161790945560405193909204169182907f8be0079c531659141344cd1fd0a4f28419497f9722a3daafe3b4186f6b6457e090600090a35050565b600e546001600160a01b03610100909104163314620001fa5760405162461bcd60e51b815260206004820181905260248201527f4f776e61626c653a2063616c6c6572206973206e6f7420746865206f776e657260448201526064015b60405180910390fd5b6001600160a01b038116620002615760405162461bcd60e51b815260206004820152602660248201527f4f776e61626c653a206e6577206f776e657220697320746865207a65726f206160448201526564647265737360d01b6064820152608401620001f1565b6200026c816200013a565b50565b8280546200027d9062000574565b90600052602060002090601f016020900481019282620002a15760008555620002ec565b82601f10620002bc57805160ff1916838001178555620002ec565b82800160010185558215620002ec579182015b82811115620002ec578251825591602001919060010190620002cf565b50620002fa92915062000356565b5090565b828054828255906000526020600020908101928215620002ec579160200282015b82811115620002ec57825182546001600160a01b0319166001600160a01b039091161782556020909201916001909101906200031f565b5b80821115620002fa576000815560010162000357565b80516001600160a01b03811681146200038557600080fd5b919050565b600082601f8301126200039b578081fd5b815160206001600160401b03821115620003b957620003b9620005b1565b8160051b620003ca82820162000541565b838152828101908684018388018501891015620003e5578687fd5b8693505b858410156200041257620003fd816200036d565b835260019390930192918401918401620003e9565b50979650505050505050565b600080600080600080600080610100898b0312156200043b578384fd5b88516001600160401b038082111562000452578586fd5b818b0191508b601f83011262000466578586fd5b8151818111156200047b576200047b620005b1565b602062000491601f8301601f1916820162000541565b8281528e82848701011115620004a5578889fd5b885b83811015620004c4578581018301518282018401528201620004a7565b83811115620004d557898385840101525b50809c5050808d01519a50505060408b0151975060608b0151965060808b0151955060a08b0151945060c08b015191508082111562000512578384fd5b50620005218b828c016200038a565b9250506200053260e08a016200036d565b90509295985092959890939650565b604051601f8201601f191681016001600160401b03811182821017156200056c576200056c620005b1565b604052919050565b600181811c908216806200058957607f821691505b60208210811415620005ab57634e487b7160e01b600052602260045260246000fd5b50919050565b634e487b7160e01b600052604160045260246000fd5b60805160a05160c05160e05161010051612e6162000644600039600081816105ab0152611bd501526000818161046301526110cf015260006120d70152600081816106fc01528181610a650152610d480152600081816105fc01528181610a86015281816113b001528181611ba80152611f9a0152612e616000f3fe6080604052600436106102255760003560e01c8063715018a611610123578063b88d4fde116100ab578063e14ca3531161006f578063e14ca35314610642578063e985e9c514610657578063ecac650b146106a0578063f2fde38b146106cd578063fe60d12c146106ed57600080fd5b8063b88d4fde14610579578063ba829d7114610599578063c87b56dd146105cd578063d5abeb01146105ed578063db7a46051461062057600080fd5b806391f4f96c116100f257806391f4f96c1461050757806395d89b411461051c5780639f181b5e14610531578063a0712d6814610546578063a22cb4651461055957600080fd5b8063715018a6146104a55780638456cb59146104ba5780638da5cb5b146104cf5780638da7878c146104f257600080fd5b80633ccfd60b116101b157806356c5d1bd1161017557806356c5d1bd146103f95780635c975abb146104195780636352211e146104315780636817c76c1461045157806370a082311461048557600080fd5b80633ccfd60b1461036f5780633f4ba83a1461038457806342842e0e146103995780634f6ccce7146103b957806355f804b3146103d957600080fd5b806318160ddd116101f857806318160ddd146102db57806323b872dd146102fa578063295e4edf1461031a5780632c4128271461033a5780632f745c591461034f57600080fd5b806301ffc9a71461022a57806306fdde031461025f578063081812fc14610281578063095ea7b3146102b9575b600080fd5b34801561023657600080fd5b5061024a610245366004612a43565b610720565b60405190151581526020015b60405180910390f35b34801561026b57600080fd5b5061027461074b565b6040516102569190612bf6565b34801561028d57600080fd5b506102a161029c366004612ac1565b6107dd565b6040516001600160a01b039091168152602001610256565b3480156102c557600080fd5b506102d96102d4366004612a1a565b610877565b005b3480156102e757600080fd5b506008545b604051908152602001610256565b34801561030657600080fd5b506102d961031536600461292c565b61098d565b34801561032657600080fd5b506102d9610335366004612ac1565b6109be565b34801561034657600080fd5b506102ec610a49565b34801561035b57600080fd5b506102ec61036a366004612a1a565b610ab9565b34801561037b57600080fd5b506102d9610b4f565b34801561039057600080fd5b506102d9610b89565b3480156103a557600080fd5b506102d96103b436600461292c565b610bc1565b3480156103c557600080fd5b506102ec6103d4366004612ac1565b610bdc565b3480156103e557600080fd5b506102d96103f4366004612a7b565b610c7d565b34801561040557600080fd5b506102d9610414366004612a1a565b610d15565b34801561042557600080fd5b50600e5460ff1661024a565b34801561043d57600080fd5b506102a161044c366004612ac1565b610e5f565b34801561045d57600080fd5b506102ec7f000000000000000000000000000000000000000000000000000000000000000081565b34801561049157600080fd5b506102ec6104a03660046128e0565b610ed6565b3480156104b157600080fd5b506102d9610f5d565b3480156104c657600080fd5b506102d9610f97565b3480156104db57600080fd5b50600e5461010090046001600160a01b03166102a1565b3480156104fe57600080fd5b50600d546102ec565b34801561051357600080fd5b50600b546102ec565b34801561052857600080fd5b50610274610fcf565b34801561053d57600080fd5b506102ec610fde565b6102d9610554366004612ac1565b610fe9565b34801561056557600080fd5b506102d96105743660046129e0565b611143565b34801561058557600080fd5b506102d9610594366004612967565b611208565b3480156105a557600080fd5b506102ec7f000000000000000000000000000000000000000000000000000000000000000081565b3480156105d957600080fd5b506102746105e8366004612ac1565b611240565b3480156105f957600080fd5b507f00000000000000000000000000000000000000000000000000000000000000006102ec565b34801561062c57600080fd5b50610635611343565b6040516102569190612b71565b34801561064e57600080fd5b506102ec6113a4565b34801561066357600080fd5b5061024a6106723660046128fa565b6001600160a01b03918216600090815260056020908152604080832093909416825291909152205460ff1690565b3480156106ac57600080fd5b506106c06106bb3660046128e0565b6113d4565b6040516102569190612bbe565b3480156106d957600080fd5b506102d96106e83660046128e0565b6114af565b3480156106f957600080fd5b507f00000000000000000000000000000000000000000000000000000000000000006102ec565b60006001600160e01b0319821663780e9d6360e01b148061074557506107458261154d565b92915050565b60606000805461075a90612d6f565b80601f016020809104026020016040519081016040528092919081815260200182805461078690612d6f565b80156107d35780601f106107a8576101008083540402835291602001916107d3565b820191906000526020600020905b8154815290600101906020018083116107b657829003601f168201915b5050505050905090565b6000818152600260205260408120546001600160a01b031661085b5760405162461bcd60e51b815260206004820152602c60248201527f4552433732313a20617070726f76656420717565727920666f72206e6f6e657860448201526b34b9ba32b73a103a37b5b2b760a11b60648201526084015b60405180910390fd5b506000908152600460205260409020546001600160a01b031690565b600061088282610e5f565b9050806001600160a01b0316836001600160a01b031614156108f05760405162461bcd60e51b815260206004820152602160248201527f4552433732313a20617070726f76616c20746f2063757272656e74206f776e656044820152603960f91b6064820152608401610852565b336001600160a01b038216148061090c575061090c8133610672565b61097e5760405162461bcd60e51b815260206004820152603860248201527f4552433732313a20617070726f76652063616c6c6572206973206e6f74206f7760448201527f6e6572206e6f7220617070726f76656420666f7220616c6c00000000000000006064820152608401610852565b610988838361159d565b505050565b610997338261160b565b6109b35760405162461bcd60e51b815260040161085290612c90565b610988838383611702565b600e546001600160a01b036101009091041633146109ee5760405162461bcd60e51b815260040161085290612c5b565b42600d5411806109fe5750600d54155b610a3d5760405162461bcd60e51b815260206004820152601060248201526f14d85b19481a185cc81cdd185c9d195960821b6044820152606401610852565b610a46816118ad565b50565b6000600b54610a56610fde565b610a609190612d2c565b610aaa7f00000000000000000000000000000000000000000000000000000000000000007f0000000000000000000000000000000000000000000000000000000000000000612d2c565b610ab49190612d2c565b905090565b6000610ac483610ed6565b8210610b265760405162461bcd60e51b815260206004820152602b60248201527f455243373231456e756d657261626c653a206f776e657220696e646578206f7560448201526a74206f6620626f756e647360a81b6064820152608401610852565b506001600160a01b03919091166000908152600660209081526040808320938352929052205490565b600e546001600160a01b03610100909104163314610b7f5760405162461bcd60e51b815260040161085290612c5b565b610b876118f9565b565b600e546001600160a01b03610100909104163314610bb95760405162461bcd60e51b815260040161085290612c5b565b610b87611a8a565b61098883838360405180602001604052806000815250611208565b6000610be760085490565b8210610c4a5760405162461bcd60e51b815260206004820152602c60248201527f455243373231456e756d657261626c653a20676c6f62616c20696e646578206f60448201526b7574206f6620626f756e647360a01b6064820152608401610852565b60088281548110610c6b57634e487b7160e01b600052603260045260246000fd5b90600052602060002001549050919050565b600e546001600160a01b03610100909104163314610cad5760405162461bcd60e51b815260040161085290612c5b565b6000815111610cfe5760405162461bcd60e51b815260206004820152601d60248201527f456d707479206261736520555249206973206e6f7420616c6c6f7765640000006044820152606401610852565b8051610d119060119060208401906127b5565b5050565b600e546001600160a01b03610100909104163314610d455760405162461bcd60e51b815260040161085290612c5b565b807f000000000000000000000000000000000000000000000000000000000000000081600b54610d759190612ce1565b1115610dc35760405162461bcd60e51b815260206004820152601c60248201527f45786365656473206d617820726573657276656420616c6c6f776564000000006044820152606401610852565b60008211610e045760405162461bcd60e51b815260206004820152600e60248201526d1a5b9d985b1a5917d85b5bdd5b9d60921b6044820152606401610852565b6001600160a01b038316610e4c5760405162461bcd60e51b815260206004820152600f60248201526e696e76616c69645f6164647265737360881b6044820152606401610852565b610e5582611b1d565b6109888383611b37565b6000818152600260205260408120546001600160a01b0316806107455760405162461bcd60e51b815260206004820152602960248201527f4552433732313a206f776e657220717565727920666f72206e6f6e657869737460448201526832b73a103a37b5b2b760b91b6064820152608401610852565b60006001600160a01b038216610f415760405162461bcd60e51b815260206004820152602a60248201527f4552433732313a2062616c616e636520717565727920666f7220746865207a65604482015269726f206164647265737360b01b6064820152608401610852565b506001600160a01b031660009081526003602052604090205490565b600e546001600160a01b03610100909104163314610f8d5760405162461bcd60e51b815260040161085290612c5b565b610b876000611c30565b600e546001600160a01b03610100909104163314610fc75760405162461bcd60e51b815260040161085290612c5b565b610b87611c8a565b60606001805461075a90612d6f565b6000610ab4600a5490565b600e5460ff161561102f5760405162461bcd60e51b815260206004820152601060248201526f14185d5cd8589b194e881c185d5cd95960821b6044820152606401610852565b42600d54111580156110425750600d5415155b6110875760405162461bcd60e51b815260206004820152601660248201527514d85b1948191a59081b9bdd081cdd185c9d081e595d60521b6044820152606401610852565b600081116110c85760405162461bcd60e51b815260206004820152600e60248201526d1a5b9d985b1a5917d85b5bdd5b9d60921b6044820152606401610852565b346110f3827f0000000000000000000000000000000000000000000000000000000000000000612d0d565b11156111395760405162461bcd60e51b8152602060048201526015602482015274115512081d985b1d59481b9bdd0818dbdc9c9958dd605a1b6044820152606401610852565b610a463382611b37565b6001600160a01b03821633141561119c5760405162461bcd60e51b815260206004820152601960248201527f4552433732313a20617070726f766520746f2063616c6c6572000000000000006044820152606401610852565b3360008181526005602090815260408083206001600160a01b03871680855290835292819020805460ff191686151590811790915590519081529192917f17307eab39ab6107e8899845ad3d59bd9653f200f220920489ca2b5937696c31910160405180910390a35050565b611212338361160b565b61122e5760405162461bcd60e51b815260040161085290612c90565b61123a84848484611d05565b50505050565b6000818152600260205260409020546060906001600160a01b03166112c15760405162461bcd60e51b815260206004820152603160248201527f45524337323155524953746f726167653a2055524920717565727920666f72206044820152703737b732bc34b9ba32b73a103a37b5b2b760791b6064820152608401610852565b60008281526012602052604090205442101561133a5760405162461bcd60e51b815260206004820152603260248201527f45524337323155524953746f726167653a2055524920717565727920666f72206044820152713737b7103932bb32b0b632b2103a37b5b2b760711b6064820152608401610852565b61074582611d38565b606060108054806020026020016040519081016040528092919081815260200182805480156107d357602002820191906000526020600020905b81546001600160a01b0316815260019091019060200180831161137d575050505050905090565b60006113ae610fde565b7f0000000000000000000000000000000000000000000000000000000000000000610aaa565b606060006113e183610ed6565b9050806114025760408051600080825260208201909252905b509392505050565b60008167ffffffffffffffff81111561142b57634e487b7160e01b600052604160045260246000fd5b604051908082528060200260200182016040528015611454578160200160208202803683370190505b50905060005b828110156113fa5761146c8582610ab9565b82828151811061148c57634e487b7160e01b600052603260045260246000fd5b6020908102919091010152806114a181612da4565b91505061145a565b50919050565b600e546001600160a01b036101009091041633146114df5760405162461bcd60e51b815260040161085290612c5b565b6001600160a01b0381166115445760405162461bcd60e51b815260206004820152602660248201527f4f776e61626c653a206e6577206f776e657220697320746865207a65726f206160448201526564647265737360d01b6064820152608401610852565b610a4681611c30565b60006001600160e01b031982166380ac58cd60e01b148061157e57506001600160e01b03198216635b5e139f60e01b145b8061074557506301ffc9a760e01b6001600160e01b0319831614610745565b600081815260046020526040902080546001600160a01b0319166001600160a01b03841690811790915581906115d282610e5f565b6001600160a01b03167f8c5be1e5ebec7d5bd14f71427d1e84f3dd0314c0f7b2291e5b200ac8c7c3b92560405160405180910390a45050565b6000818152600260205260408120546001600160a01b03166116845760405162461bcd60e51b815260206004820152602c60248201527f4552433732313a206f70657261746f7220717565727920666f72206e6f6e657860448201526b34b9ba32b73a103a37b5b2b760a11b6064820152608401610852565b600061168f83610e5f565b9050806001600160a01b0316846001600160a01b031614806116ca5750836001600160a01b03166116bf846107dd565b6001600160a01b0316145b806116fa57506001600160a01b0380821660009081526005602090815260408083209388168352929052205460ff165b949350505050565b826001600160a01b031661171582610e5f565b6001600160a01b03161461177d5760405162461bcd60e51b815260206004820152602960248201527f4552433732313a207472616e73666572206f6620746f6b656e2074686174206960448201526839903737ba1037bbb760b91b6064820152608401610852565b6001600160a01b0382166117df5760405162461bcd60e51b8152602060048201526024808201527f4552433732313a207472616e7366657220746f20746865207a65726f206164646044820152637265737360e01b6064820152608401610852565b6117ea838383611e13565b6117f560008261159d565b6001600160a01b038316600090815260036020526040812080546001929061181e908490612d2c565b90915550506001600160a01b038216600090815260036020526040812080546001929061184c908490612ce1565b909155505060008181526002602052604080822080546001600160a01b0319166001600160a01b0386811691821790925591518493918716917fddf252ad1be2c89b69c2b068fc378daa952ba7f163c4a11628f55a4df523b3ef91a4505050565b4281116118f45760405162461bcd60e51b815260206004820152601560248201527443616e206e6f74207365742074696d65206261636b60581b6044820152606401610852565b600d55565b6002600f54141561194c5760405162461bcd60e51b815260206004820152601f60248201527f5265656e7472616e637947756172643a207265656e7472616e742063616c6c006044820152606401610852565b6002600f556010546000906119619047612cf9565b9050600081116119b35760405162461bcd60e51b815260206004820152601760248201527f43616e27742073706c6974207a65726f207368617265730000000000000000006044820152606401610852565b60005b601054811015611a81577f7084f5476618d8e60b11ef0d7d3f06914655adb8793e28ff7f018d4c76d505d560108281548110611a0257634e487b7160e01b600052603260045260246000fd5b60009182526020918290200154604080516001600160a01b0390921682529181018590520160405180910390a1611a6f8260108381548110611a5457634e487b7160e01b600052603260045260246000fd5b6000918252602090912001546001600160a01b031690611e1e565b80611a7981612da4565b9150506119b6565b50506001600f55565b600e5460ff16611ad35760405162461bcd60e51b815260206004820152601460248201527314185d5cd8589b194e881b9bdd081c185d5cd95960621b6044820152606401610852565b600e805460ff191690557f5db9ee0a495bf2e6ff9c91a7834c1ba4fdd244a5e8aa4e537bd38aeae4b073aa335b6040516001600160a01b03909116815260200160405180910390a1565b80600b6000828254611b2f9190612ce1565b909155505050565b6002600f541415611b8a5760405162461bcd60e51b815260206004820152601f60248201527f5265656e7472616e637947756172643a207265656e7472616e742063616c6c006044820152606401610852565b6002600f5560005b81811015611c26576000611ba4611f37565b90507f00000000000000000000000000000000000000000000000000000000000000006008541015611c1357611bfa7f000000000000000000000000000000000000000000000000000000000000000042612ce1565b600082815260126020526040902055611c138482612104565b5080611c1e81612da4565b915050611b92565b50506001600f5550565b600e80546001600160a01b03838116610100818102610100600160a81b031985161790945560405193909204169182907f8be0079c531659141344cd1fd0a4f28419497f9722a3daafe3b4186f6b6457e090600090a35050565b600e5460ff1615611cd05760405162461bcd60e51b815260206004820152601060248201526f14185d5cd8589b194e881c185d5cd95960821b6044820152606401610852565b600e805460ff191660011790557f62e78cea01bee320cd4e420270b5ea74000d11b0c9f74754ebdbfc544b05a258611b003390565b611d10848484611702565b611d1c8484848461211e565b61123a5760405162461bcd60e51b815260040161085290612c09565b6000818152600260205260409020546060906001600160a01b0316611db75760405162461bcd60e51b815260206004820152602f60248201527f4552433732314d657461646174613a2055524920717565727920666f72206e6f60448201526e3732bc34b9ba32b73a103a37b5b2b760891b6064820152608401610852565b6000611dc161222b565b90506000815111611de15760405180602001604052806000815250611e0c565b80611deb8461223a565b604051602001611dfc929190612b05565b6040516020818303038152906040525b9392505050565b610988838383612354565b80471015611e6e5760405162461bcd60e51b815260206004820152601d60248201527f416464726573733a20696e73756666696369656e742062616c616e63650000006044820152606401610852565b6000826001600160a01b03168260405160006040518083038185875af1925050503d8060008114611ebb576040519150601f19603f3d011682016040523d82523d6000602084013e611ec0565b606091505b50509050806109885760405162461bcd60e51b815260206004820152603a60248201527f416464726573733a20756e61626c6520746f2073656e642076616c75652c207260448201527f6563697069656e74206d617920686176652072657665727465640000000000006064820152608401610852565b600080611f426113a4565b11611f8a5760405162461bcd60e51b81526020600482015260186024820152774e6f206d6f726520746f6b656e7320617661696c61626c6560401b6044820152606401610852565b6000611f94610fde565b611fbe907f0000000000000000000000000000000000000000000000000000000000000000612d2c565b6040516bffffffffffffffffffffffff1933606090811b8216602084015241901b166034820152446048820152456068820152426088820152909150600090829060a8016040516020818303038152906040528051906020012060001c6120259190612dbf565b6000818152600c602052604081205491925090612043575080612054565b506000818152600c60205260409020545b600c6000612063600186612d2c565b8152602001908152602001600020546000141561209957612085600184612d2c565b6000838152600c60205260409020556120c9565b600c60006120a8600186612d2c565b81526020808201929092526040908101600090812054858252600c90935220555b6120d161240c565b506120fc7f000000000000000000000000000000000000000000000000000000000000000082612ce1565b935050505090565b610d1182826040518060200160405280600081525061247a565b60006001600160a01b0384163b1561222057604051630a85bd0160e11b81526001600160a01b0385169063150b7a0290612162903390899088908890600401612b34565b602060405180830381600087803b15801561217c57600080fd5b505af19250505080156121ac575060408051601f3d908101601f191682019092526121a991810190612a5f565b60015b612206573d8080156121da576040519150601f19603f3d011682016040523d82523d6000602084013e6121df565b606091505b5080516121fe5760405162461bcd60e51b815260040161085290612c09565b805181602001fd5b6001600160e01b031916630a85bd0160e11b1490506116fa565b506001949350505050565b60606011805461075a90612d6f565b60608161225e5750506040805180820190915260018152600360fc1b602082015290565b8160005b8115612288578061227281612da4565b91506122819050600a83612cf9565b9150612262565b60008167ffffffffffffffff8111156122b157634e487b7160e01b600052604160045260246000fd5b6040519080825280601f01601f1916602001820160405280156122db576020820181803683370190505b5090505b84156116fa576122f0600183612d2c565b91506122fd600a86612dbf565b612308906030612ce1565b60f81b81838151811061232b57634e487b7160e01b600052603260045260246000fd5b60200101906001600160f81b031916908160001a90535061234d600a86612cf9565b94506122df565b6001600160a01b0383166123af576123aa81600880546000838152600960205260408120829055600182018355919091527ff3f7a9fe364faab93b216da50a3214154f22a0a2b415b23a84c8169e8b636ee30155565b6123d2565b816001600160a01b0316836001600160a01b0316146123d2576123d283826124ad565b6001600160a01b0382166123e9576109888161254a565b826001600160a01b0316826001600160a01b031614610988576109888282612623565b6000806124176113a4565b1161245f5760405162461bcd60e51b81526020600482015260186024820152774e6f206d6f726520746f6b656e7320617661696c61626c6560401b6044820152606401610852565b600061246a600a5490565b9050610ab4600a80546001019055565b6124848383612667565b612491600084848461211e565b6109885760405162461bcd60e51b815260040161085290612c09565b600060016124ba84610ed6565b6124c49190612d2c565b600083815260076020526040902054909150808214612517576001600160a01b03841660009081526006602090815260408083208584528252808320548484528184208190558352600790915290208190555b5060009182526007602090815260408084208490556001600160a01b039094168352600681528383209183525290812055565b60085460009061255c90600190612d2c565b6000838152600960205260408120546008805493945090928490811061259257634e487b7160e01b600052603260045260246000fd5b9060005260206000200154905080600883815481106125c157634e487b7160e01b600052603260045260246000fd5b600091825260208083209091019290925582815260099091526040808220849055858252812055600880548061260757634e487b7160e01b600052603160045260246000fd5b6001900381819060005260206000200160009055905550505050565b600061262e83610ed6565b6001600160a01b039093166000908152600660209081526040808320868452825280832085905593825260079052919091209190915550565b6001600160a01b0382166126bd5760405162461bcd60e51b815260206004820181905260248201527f4552433732313a206d696e7420746f20746865207a65726f20616464726573736044820152606401610852565b6000818152600260205260409020546001600160a01b0316156127225760405162461bcd60e51b815260206004820152601c60248201527f4552433732313a20746f6b656e20616c7265616479206d696e746564000000006044820152606401610852565b61272e60008383611e13565b6001600160a01b0382166000908152600360205260408120805460019290612757908490612ce1565b909155505060008181526002602052604080822080546001600160a01b0319166001600160a01b03861690811790915590518392907fddf252ad1be2c89b69c2b068fc378daa952ba7f163c4a11628f55a4df523b3ef908290a45050565b8280546127c190612d6f565b90600052602060002090601f0160209004810192826127e35760008555612829565b82601f106127fc57805160ff1916838001178555612829565b82800160010185558215612829579182015b8281111561282957825182559160200191906001019061280e565b50612835929150612839565b5090565b5b80821115612835576000815560010161283a565b600067ffffffffffffffff8084111561286957612869612dff565b604051601f8501601f19908116603f0116810190828211818310171561289157612891612dff565b816040528093508581528686860111156128aa57600080fd5b858560208301376000602087830101525050509392505050565b80356001600160a01b03811681146128db57600080fd5b919050565b6000602082840312156128f1578081fd5b611e0c826128c4565b6000806040838503121561290c578081fd5b612915836128c4565b9150612923602084016128c4565b90509250929050565b600080600060608486031215612940578081fd5b612949846128c4565b9250612957602085016128c4565b9150604084013590509250925092565b6000806000806080858703121561297c578081fd5b612985856128c4565b9350612993602086016128c4565b925060408501359150606085013567ffffffffffffffff8111156129b5578182fd5b8501601f810187136129c5578182fd5b6129d48782356020840161284e565b91505092959194509250565b600080604083850312156129f2578182fd5b6129fb836128c4565b915060208301358015158114612a0f578182fd5b809150509250929050565b60008060408385031215612a2c578182fd5b612a35836128c4565b946020939093013593505050565b600060208284031215612a54578081fd5b8135611e0c81612e15565b600060208284031215612a70578081fd5b8151611e0c81612e15565b600060208284031215612a8c578081fd5b813567ffffffffffffffff811115612aa2578182fd5b8201601f81018413612ab2578182fd5b6116fa8482356020840161284e565b600060208284031215612ad2578081fd5b5035919050565b60008151808452612af1816020860160208601612d43565b601f01601f19169290920160200192915050565b60008351612b17818460208801612d43565b835190830190612b2b818360208801612d43565b01949350505050565b6001600160a01b0385811682528416602082015260408101839052608060608201819052600090612b6790830184612ad9565b9695505050505050565b6020808252825182820181905260009190848201906040850190845b81811015612bb25783516001600160a01b031683529284019291840191600101612b8d565b50909695505050505050565b6020808252825182820181905260009190848201906040850190845b81811015612bb257835183529284019291840191600101612bda565b602081526000611e0c6020830184612ad9565b60208082526032908201527f4552433732313a207472616e7366657220746f206e6f6e20455243373231526560408201527131b2b4bb32b91034b6b83632b6b2b73a32b960711b606082015260800190565b6020808252818101527f4f776e61626c653a2063616c6c6572206973206e6f7420746865206f776e6572604082015260600190565b60208082526031908201527f4552433732313a207472616e736665722063616c6c6572206973206e6f74206f6040820152701ddb995c881b9bdc88185c1c1c9bdd9959607a1b606082015260800190565b60008219821115612cf457612cf4612dd3565b500190565b600082612d0857612d08612de9565b500490565b6000816000190483118215151615612d2757612d27612dd3565b500290565b600082821015612d3e57612d3e612dd3565b500390565b60005b83811015612d5e578181015183820152602001612d46565b8381111561123a5750506000910152565b600181811c90821680612d8357607f821691505b602082108114156114a957634e487b7160e01b600052602260045260246000fd5b6000600019821415612db857612db8612dd3565b5060010190565b600082612dce57612dce612de9565b500690565b634e487b7160e01b600052601160045260246000fd5b634e487b7160e01b600052601260045260246000fd5b634e487b7160e01b600052604160045260246000fd5b6001600160e01b031981168114610a4657600080fdfea2646970667358221220ecdd5914b799a38524d53d14b8d454eb5db8397f26b2a77048fb9d05c64ffc8764736f6c63430008040033",
  "devdoc": {
    "kind": "dev",
    "methods": {
      "approve(address,uint256)": {
        "details": "See {IERC721-approve}."
      },
      "availableTokenCount()": {
        "details": "Check whether tokens are still available",
        "returns": {
          "_0": "the available token count"
        }
      },
      "availableTokenForSale()": {
        "details": "Check whether tokens are still available for sale",
        "returns": {
          "_0": "the available token count"
        }
      },
      "balanceOf(address)": {
        "details": "See {IERC721-balanceOf}."
      },
      "getApproved(uint256)": {
        "details": "See {IERC721-getApproved}."
      },
      "isApprovedForAll(address,address)": {
        "details": "See {IERC721-isApprovedForAll}."
      },
      "maxSupply()": {
        "details": "Get the max Supply",
        "returns": {
          "_0": "the maximum token count"
        }
      },
      "mint(uint256)": {
        "details": "called only when sale is startedcalled only when not paused`_numberOfNFTs` can't zeromust not xceed the cap",
        "params": {
          "_numberOfNFTs": "number of NFT to be minted emit Transfer"
        }
      },
      "mintReservedNFTs(address,uint256)": {
        "details": "`_to` can't hold more than the `maxToMintPerAddress``_to` can't be empty`_numberOfNFTs` can't zeromust not xceed the cap",
        "params": {
          "_numberOfNFTs": "number of NFT to be minted emit Transfer",
          "_to": "NFT holder address"
        }
      },
      "name()": {
        "details": "See {IERC721Metadata-name}."
      },
      "owner()": {
        "details": "Returns the address of the current owner."
      },
      "ownerNFTs(address)": {
        "params": {
          "owner_": "address of the NFTs' owner"
        },
        "returns": {
          "_0": "Number of NFTs owened by the `owner_`"
        }
      },
      "ownerOf(uint256)": {
        "details": "See {IERC721-ownerOf}."
      },
      "pause()": {
        "details": "Pauses all token transfers. See {ERC721Pausable} and {Pausable-_pause}. Requirements: - the caller must have the `PAUSER_ROLE`."
      },
      "paused()": {
        "details": "Returns true if the contract is paused, and false otherwise."
      },
      "renounceOwnership()": {
        "details": "Leaves the contract without owner. It will not be possible to call `onlyOwner` functions anymore. Can only be called by the current owner. NOTE: Renouncing ownership will leave the contract without an owner, thereby removing any functionality that is only available to the owner."
      },
      "reserved()": {
        "details": "Get reserved amount",
        "returns": {
          "_0": "the token amount reserved"
        }
      },
      "safeTransferFrom(address,address,uint256)": {
        "details": "See {IERC721-safeTransferFrom}."
      },
      "safeTransferFrom(address,address,uint256,bytes)": {
        "details": "See {IERC721-safeTransferFrom}."
      },
      "setApprovalForAll(address,bool)": {
        "details": "See {IERC721-setApprovalForAll}."
      },
      "setBaseURI(string)": {
        "details": "`_URI` can't be empty",
        "params": {
          "_URI": "new base URI"
        }
      },
      "supportsInterface(bytes4)": {
        "details": "See {IERC165-supportsInterface}."
      },
      "symbol()": {
        "details": "See {IERC721Metadata-symbol}."
      },
      "tokenByIndex(uint256)": {
        "details": "See {IERC721Enumerable-tokenByIndex}."
      },
      "tokenCount()": {
        "details": "Get the current token count",
        "returns": {
          "_0": "the created token count"
        }
      },
      "tokenOfOwnerByIndex(address,uint256)": {
        "details": "See {IERC721Enumerable-tokenOfOwnerByIndex}."
      },
      "tokenURI(uint256)": {
        "details": "See {IERC721Metadata-tokenURI}."
      },
      "totalSupply()": {
        "details": "See {IERC721Enumerable-totalSupply}."
      },
      "transferFrom(address,address,uint256)": {
        "details": "See {IERC721-transferFrom}."
      },
      "transferOwnership(address)": {
        "details": "Transfers ownership of the contract to a new account (`newOwner`). Can only be called by the current owner."
      },
      "unpause()": {
        "details": "Unpauses all token transfers. See {ERC721Pausable} and {Pausable-_unpause}. Requirements: - the caller must have the `PAUSER_ROLE`."
      },
      "updateSaleStartTime(uint256)": {
        "details": "`__startTimeURI` must be more than the current time",
        "params": {
          "_startTime": "new _startTime"
        }
      },
      "withdraw()": {
        "details": "Withdraw accumulated balance for `wallets`"
      }
    },
    "title": "TheKingCollection With Eth contract",
    "version": 1
  },
  "userdoc": {
    "kind": "user",
    "methods": {
      "mint(uint256)": {
        "notice": "caller should pay the required price"
      },
      "mintReservedNFTs(address,uint256)": {
        "notice": "Only woner can call it"
      },
      "setBaseURI(string)": {
        "notice": "Only woner can call it"
      },
      "updateSaleStartTime(uint256)": {
        "notice": "Only woner can call it"
      }
    },
    "version": 1
  },
  "storageLayout": {
    "storage": [
      {
        "astId": 261,
        "contract": "contracts/launchpadProjects/erc721/TheKingCollection.sol:TheKingCollection",
        "label": "_name",
        "offset": 0,
        "slot": "0",
        "type": "t_string_storage"
      },
      {
        "astId": 263,
        "contract": "contracts/launchpadProjects/erc721/TheKingCollection.sol:TheKingCollection",
        "label": "_symbol",
        "offset": 0,
        "slot": "1",
        "type": "t_string_storage"
      },
      {
        "astId": 267,
        "contract": "contracts/launchpadProjects/erc721/TheKingCollection.sol:TheKingCollection",
        "label": "_owners",
        "offset": 0,
        "slot": "2",
        "type": "t_mapping(t_uint256,t_address)"
      },
      {
        "astId": 271,
        "contract": "contracts/launchpadProjects/erc721/TheKingCollection.sol:TheKingCollection",
        "label": "_balances",
        "offset": 0,
        "slot": "3",
        "type": "t_mapping(t_address,t_uint256)"
      },
      {
        "astId": 275,
        "contract": "contracts/launchpadProjects/erc721/TheKingCollection.sol:TheKingCollection",
        "label": "_tokenApprovals",
        "offset": 0,
        "slot": "4",
        "type": "t_mapping(t_uint256,t_address)"
      },
      {
        "astId": 281,
        "contract": "contracts/launchpadProjects/erc721/TheKingCollection.sol:TheKingCollection",
        "label": "_operatorApprovals",
        "offset": 0,
        "slot": "5",
        "type": "t_mapping(t_address,t_mapping(t_address,t_bool))"
      },
      {
        "astId": 1200,
        "contract": "contracts/launchpadProjects/erc721/TheKingCollection.sol:TheKingCollection",
        "label": "_ownedTokens",
        "offset": 0,
        "slot": "6",
        "type": "t_mapping(t_address,t_mapping(t_uint256,t_uint256))"
      },
      {
        "astId": 1204,
        "contract": "contracts/launchpadProjects/erc721/TheKingCollection.sol:TheKingCollection",
        "label": "_ownedTokensIndex",
        "offset": 0,
        "slot": "7",
        "type": "t_mapping(t_uint256,t_uint256)"
      },
      {
        "astId": 1207,
        "contract": "contracts/launchpadProjects/erc721/TheKingCollection.sol:TheKingCollection",
        "label": "_allTokens",
        "offset": 0,
        "slot": "8",
        "type": "t_array(t_uint256)dyn_storage"
      },
      {
        "astId": 1211,
        "contract": "contracts/launchpadProjects/erc721/TheKingCollection.sol:TheKingCollection",
        "label": "_allTokensIndex",
        "offset": 0,
        "slot": "9",
        "type": "t_mapping(t_uint256,t_uint256)"
      },
      {
        "astId": 2491,
        "contract": "contracts/launchpadProjects/erc721/TheKingCollection.sol:TheKingCollection",
        "label": "_tokenCount",
        "offset": 0,
        "slot": "10",
        "type": "t_struct(Counter)1906_storage"
      },
      {
        "astId": 2614,
        "contract": "contracts/launchpadProjects/erc721/TheKingCollection.sol:TheKingCollection",
        "label": "_totalReserveSupply",
        "offset": 0,
        "slot": "11",
        "type": "t_uint256"
      },
      {
        "astId": 2263,
        "contract": "contracts/launchpadProjects/erc721/TheKingCollection.sol:TheKingCollection",
        "label": "tokenMatrix",
        "offset": 0,
        "slot": "12",
        "type": "t_mapping(t_uint256,t_uint256)"
      },
      {
        "astId": 2722,
        "contract": "contracts/launchpadProjects/erc721/TheKingCollection.sol:TheKingCollection",
        "label": "_startTimeSale",
        "offset": 0,
        "slot": "13",
        "type": "t_uint256"
      },
      {
        "astId": 121,
        "contract": "contracts/launchpadProjects/erc721/TheKingCollection.sol:TheKingCollection",
        "label": "_paused",
        "offset": 0,
        "slot": "14",
        "type": "t_bool"
      },
      {
        "astId": 7,
        "contract": "contracts/launchpadProjects/erc721/TheKingCollection.sol:TheKingCollection",
        "label": "_owner",
        "offset": 1,
        "slot": "14",
        "type": "t_address"
      },
      {
        "astId": 206,
        "contract": "contracts/launchpadProjects/erc721/TheKingCollection.sol:TheKingCollection",
        "label": "_status",
        "offset": 0,
        "slot": "15",
        "type": "t_uint256"
      },
      {
        "astId": 2398,
        "contract": "contracts/launchpadProjects/erc721/TheKingCollection.sol:TheKingCollection",
        "label": "_wallets",
        "offset": 0,
        "slot": "16",
        "type": "t_array(t_address)dyn_storage"
      },
      {
        "astId": 3198,
        "contract": "contracts/launchpadProjects/erc721/TheKingCollection.sol:TheKingCollection",
        "label": "_baseTokenURI",
        "offset": 0,
        "slot": "17",
        "type": "t_string_storage"
      },
      {
        "astId": 3202,
        "contract": "contracts/launchpadProjects/erc721/TheKingCollection.sol:TheKingCollection",
        "label": "_tokenRevealTime",
        "offset": 0,
        "slot": "18",
        "type": "t_mapping(t_uint256,t_uint256)"
      }
    ],
    "types": {
      "t_address": {
        "encoding": "inplace",
        "label": "address",
        "numberOfBytes": "20"
      },
      "t_array(t_address)dyn_storage": {
        "base": "t_address",
        "encoding": "dynamic_array",
        "label": "address[]",
        "numberOfBytes": "32"
      },
      "t_array(t_uint256)dyn_storage": {
        "base": "t_uint256",
        "encoding": "dynamic_array",
        "label": "uint256[]",
        "numberOfBytes": "32"
      },
      "t_bool": {
        "encoding": "inplace",
        "label": "bool",
        "numberOfBytes": "1"
      },
      "t_mapping(t_address,t_bool)": {
        "encoding": "mapping",
        "key": "t_address",
        "label": "mapping(address => bool)",
        "numberOfBytes": "32",
        "value": "t_bool"
      },
      "t_mapping(t_address,t_mapping(t_address,t_bool))": {
        "encoding": "mapping",
        "key": "t_address",
        "label": "mapping(address => mapping(address => bool))",
        "numberOfBytes": "32",
        "value": "t_mapping(t_address,t_bool)"
      },
      "t_mapping(t_address,t_mapping(t_uint256,t_uint256))": {
        "encoding": "mapping",
        "key": "t_address",
        "label": "mapping(address => mapping(uint256 => uint256))",
        "numberOfBytes": "32",
        "value": "t_mapping(t_uint256,t_uint256)"
      },
      "t_mapping(t_address,t_uint256)": {
        "encoding": "mapping",
        "key": "t_address",
        "label": "mapping(address => uint256)",
        "numberOfBytes": "32",
        "value": "t_uint256"
      },
      "t_mapping(t_uint256,t_address)": {
        "encoding": "mapping",
        "key": "t_uint256",
        "label": "mapping(uint256 => address)",
        "numberOfBytes": "32",
        "value": "t_address"
      },
      "t_mapping(t_uint256,t_uint256)": {
        "encoding": "mapping",
        "key": "t_uint256",
        "label": "mapping(uint256 => uint256)",
        "numberOfBytes": "32",
        "value": "t_uint256"
      },
      "t_string_storage": {
        "encoding": "bytes",
        "label": "string",
        "numberOfBytes": "32"
      },
      "t_struct(Counter)1906_storage": {
        "encoding": "inplace",
        "label": "struct Counters.Counter",
        "members": [
          {
            "astId": 1905,
            "contract": "contracts/launchpadProjects/erc721/TheKingCollection.sol:TheKingCollection",
            "label": "_value",
            "offset": 0,
            "slot": "0",
            "type": "t_uint256"
          }
        ],
        "numberOfBytes": "32"
      },
      "t_uint256": {
        "encoding": "inplace",
        "label": "uint256",
        "numberOfBytes": "32"
      }
    }
  }
}